:100000000C94B0000C94D8000C94D8000C949C0F65
:100010000C94C60F0C94F00F0C94D8000C94D800DC
:100020000C94D8000C9434130C94D8000C94D80081
:100030000C94D8000C94D8000C94D8000C94D800E0
:100040000C94DD150C94D8000C94DA000C94160175
:100050000C94D8000C94D8000C94D8000C94D800C0
:100060000C94D8000C94D80000C2010001001100CB
:1000700011000C0000E100000A002500250021000D
:10008000009600001900390039003600127A00008D
:100090001F004600460044008070000022004D0012
:1000A0004D004A00004B00003600750075007200DC
:1000B000403800004A009C009C0099008025000008
:1000C0007200EC00EC00E900C0120000E900DA0167
:1000D000DA01D70160090000D701B603B603B30304
:1000E000B0040000B3036E076E076B0758020000F0
:1000F0006E07DC0EDC0ED80E2C010000DC0EC11DDC
:10010000C11DBE1D00000000240027002A000000C1
:100110000000250028002B0000000000230026001E
:10012000290004040404040404040202020202027A
:1001300003030303030301020408102040800102AB
:10014000040810200102040810200000000700022B
:10015000010000030406000000000000000064012C
:1001600011241FBECFEFD8E0DEBFCDBF12E0A0E06C
:10017000B1E0ECE9F6E302C005900D92A437B107B7
:10018000D9F714E0A4E7B2E001C01D92A631B1078F
:10019000E1F711E0C0E6D1E004C02297FE010E9421
:1001A000481BCE35D107C9F70E948F180C944C1B01
:1001B0000C9400001F920F920FB60F9211242F93F0
:1001C0003F934F938F939F93EF93FF934091C6007C
:1001D0002091F4033091F5032F5F3F4F8091F80396
:1001E0009091F903282339238091F6039091F70326
:1001F0002817390779F08091F4039091F503E09185
:10020000FA03F091FB03E80FF91F40833093F503E5
:100210002093F403FF91EF919F918F914F913F9124
:100220002F910F900FBE0F901F9018951F920F9255
:100230000FB60F9211242F933F938F939F93EF93B9
:10024000FF932091FE033091FF038091FC03909176
:10025000FD0328173907E9F08091FE039091FF0311
:10026000E0910204F0910304E80FF91F808180936C
:10027000C6008091FE039091FF0301962091000437
:1002800030910104822393239093FF038093FE0314
:1002900010C02091FC033091FD038091FE039091EA
:1002A000FF032817390729F48091C1008F7D8093BF
:1002B000C100FF91EF919F918F913F912F910F90EE
:1002C0000FBE0F901F9018958F92AF92CF92EF9222
:1002D000FF920F931F9386E792E060E045EC50E0B9
:1002E00024EC30E000EC10E0F1ECEF2EF12CCC240B
:1002F000C394E8E9AE2E70E2872E0E946E1380E868
:1003000080939702109298028091980280939A02AB
:1003100080919A02809399021F910F91FF90EF9024
:10032000CF90AF908F9008951F9311E02EC0209131
:1003300074023091750280919802815080939802E6
:1003400080919A0260919702772767FD70959927AF
:1003500087FD90950E94E21A80939A0280919A02FA
:10036000E82FFF27E7FDF095E956FD4F64818F5F89
:1003700080939A02C9010E949C0D882331F08091DC
:100380002603882311F410932603809198021816EF
:1003900074F21F91089580911B0390911C030196A4
:1003A00090931C0380931B03893191059CF060910D
:1003B000950270919602409174025091750280915D
:1003C0009302909194020E94500310921C03109289
:1003D0001B03089565E070E00E94E21A20919302E9
:1003E000309194026091950270919602409174024E
:1003F00050917502892B21F4C9010E94A20708952A
:10040000C9010E9411070895EF92FF920F931F9365
:100410000E9425169B01AC0180911D0390911E0343
:10042000A0911F03B091200379018A01E81AF90A0B
:100430000A0B1B0BD801C701855F9140A040B0405B
:10044000B8F020931D0330931E0340931F03509375
:10045000200380912503882321F481E080932503E4
:1004600002C0109225038DE0609125030E940617BB
:100470001F910F91FF90EF900895E0917402F09119
:10048000750282818823A1F40E942516E0917402EE
:10049000F09175022581368147815085621B730B6F
:1004A000840B950B695873418040904008F472C0EA
:1004B0000E942516209121033091220340912303AD
:1004C00050912403621B730B840B950B615D774085
:1004D0008040904008F45EC0809174029091750253
:1004E0000E94C50962E370E080E090E00E9433164C
:1004F00080917402909175020E94C50962E370E0D8
:1005000080E090E00E943316809174029091750211
:100510000E94C50962E370E080E090E00E9433161B
:10052000E0917402F0917502128214820E942516E5
:1005300060932103709322038093230390932403F9
:1005400029C08091980286E792E00E94F013282F3C
:1005500080919802809198028F5F80939802809199
:10056000990260919702772767FD7095992787FD1B
:1005700090950E94E21A80939902E0919902FF27D8
:10058000E7FDF095E956FD4F2483809199028F5F36
:100590008093990286E792E00E94C013181619060C
:1005A00084F20E9494010E94040208950F931F9305
:1005B0008CE190E00E949E18182F092F66E045E01C
:1005C00021E00E9447121093950200939602812F1A
:1005D000902F40E855E260E070E00E941A1086E734
:1005E00092E040E051EE60E070E00E945E1386E72A
:1005F00092E00E943D148AE590E00E949E18182F18
:10060000092F66E772E00E9441081093740200937C
:10061000750282E490E00E949E18182F092F0E9414
:100620004A0310939302009394028DE061E00E94CC
:10063000061781E08093250368EC70E080E090E08D
:100640002FE632E143E85AE30BEC11E00E94751209
:100650000E94D31200E010E000FF08C08DE061E0CE
:100660000E94061781E08093250306C08DE060E0BC
:100670000E9406171092250362E370E080E090E08C
:100680000E9433160F5F1F4F0436110529F71F9183
:100690000F910895FC01E05CFF4F118210820895D4
:1006A00008958F929F92AF92BF92CF92DF92EF9276
:1006B000FF920F931F93CF93DF934C01A62EEA0175
:1006C00023E1621709F429C126171CF134E06317EE
:1006D00009F49AC036175CF082E0681709F46DC01F
:1006E00086170CF470C091E06917B9F538C0E0E1E5
:1006F0006E1709F4A5C0E61724F0F5E06F1769F549
:1007000089C021E1621709F4DAC032E1631729F5E3
:1007100063C184E2681709F476C286177CF095E11C
:10072000691709F4F4C169170CF4B7C1E6E16E1753
:1007300009F413C2F7E16F1781F436C226E262179B
:1007400009F480C262170CF464C238E2631709F43A
:1007500097C28AE3681709F4B4C280E0FBC2E8815B
:10076000F9810190F081E02DCA01099520E030E087
:1007700048EC52E40E94CC186B017C01E0E4F0E00C
:100780008E0E9F1EF40180819181840100541040DF
:10079000080F191FBEE5BB2EF801B082A182C70168
:1007A000B6010E949C19F8016283272F332727FD89
:1007B0003A952383B48229E098C1E881F9810280C7
:1007C000F381E02D2CC0E881F9810480F581E02DD2
:1007D000CA0109956EE170E00E94E21ACB0120E4A3
:1007E00030E0820E931EF40120813181E054F0400C
:1007F000E20FF31F2EE5208323E021838283892FDC
:10080000990F990B83835BC2E881F9810680F78198
:10081000E02D05C0E881F9810084F185E02DCE014D
:10082000099520E430E0820E931EF401208131818D
:10083000E054F040E20FF31F2EE52083A182DECFCB
:10084000E881F9810284F385E02DCA01099520E051
:1008500030E040E251E40E94CC186B017C0120E4BE
:1008600030E0820E931EF401808191818401005456
:100870001040080F191F4EE5B42EF801B082A18276
:10088000C701B6010E949C19F8016283272F332704
:1008900027FD3A952383B48221E22583882777FDBB
:1008A0008095982F0E94CF199B01AC01C701B6011A
:1008B0000E94CB1820E030E048EC52E440C2E881CE
:1008C000F9810484F585E02DCA0109952FE135E809
:1008D0004BEE5FE30E9434196B017C0120E430E0B1
:1008E000820E931EF4018081918184010054104096
:1008F000080F191F2EE5B22EF801B082A182C701A0
:10090000B6010E949C19F8016283272F332727FD27
:100910003A952383B48229E1E8C0E881F98100880F
:10092000F189E02DCA0109956B017C0120E430E0DA
:10093000820E931EF4010081118120EC3FEF820EA4
:10094000931E080D191D8EE5B82EF801B082A18204
:10095000C701B6010E949C19F8016283272F332733
:1009600027FD3A952383B4822BE12583882777FDE1
:100970008095982F0E94CF199B01AC01C701B60149
:100980000E94CB1820E030E44CE156E40E947F1A2C
:100990000E94A119F8016683672F770F770B678391
:1009A000C701B60120E030E040E050E00E9430197D
:1009B00087FD02C02EE401C023E580E490E0880EAC
:1009C000991EF40180819181E054F040E80FF91FF5
:1009D0008EE5808783E25CC0E881F9810684F78533
:1009E000E02DCA0109956B017C0120E430E0820E04
:1009F000931EF4010081118120EC3FEF820E931EC3
:100A0000080D191D5EE5B52EF801B082A1820E9485
:100A10009C19F8016283272F332727FD3A952383FA
:100A2000B4822AE12583882777FD8095982F0E943C
:100A3000CF199B01AC01C701B6010E94CB1820E081
:100A400030E44CE156E40E947F1A0E94A119F8019B
:100A50006683672F770F770B6783C701B60120E0A6
:100A600030E040E050E00E94301987FD02C025E4EC
:100A700001C027E580E490E0880E991EF401808192
:100A80009181E054F040E80FF91F8EE5808782E203
:100A90008187228713868CE05DC1E881F981028815
:100AA000F389E02DCA0109956B017C0120E430E057
:100AB000820E931EF40180819181840100541040C4
:100AC000080F191F2EE5B22EF801B08284E1818350
:100AD000C701B6010E949C19F8016283272F3327B2
:100AE00027FD3A952383B4822CE12583882777FD5F
:100AF0008095982F0E94CF199B01AC01C701B601C8
:100B00000E94CB1820E030E04AE754E418C180E4AA
:100B1000E82EF12CE80CF91CF70100811181F40199
:100B2000E00FF11F8EE5808361830E5F1F4FE88128
:100B3000F9810688F789E02DCA010995080D191D6C
:100B4000F8018083F701008111810D5F1F4FE8815B
:100B5000F9810688F789E02D4CC000E4E02EF12CE5
:100B6000E80CF91CF70100811181F401E00FF11F7D
:100B70008EE5808385E181830E5F1F4FE881F981D7
:100B80000488F589E02DCA010995080D191DF801A1
:100B90008083F701008111810D5F1F4FE881F9818A
:100BA0000488F589E02D25C010E4E12EF12CE80C35
:100BB000F91CF70100811181F401E00FF11F8EE5AE
:100BC000808361830E5F1F4FE881F981008CF18D76
:100BD000E02DCA010995080D191DF8018083F70160
:100BE000008111810D5F1F4FE881F981008CF18D2B
:100BF000E02DCE010995080D191D892F990F990B2C
:100C0000F80180835CC0E881F981028CF38DE02DCE
:100C10001EC0E881F981048CF58DE02DCA0109958B
:100C200020E430E0820E931EF401208131818401A2
:100C300000541040020F131F2EE5F801208325E217
:100C4000218317C0E881F981068CF78DE02DCE0154
:100C5000099520E430E0820E931EF4012081318159
:100C6000840100541040020F131F2EE5F801208369
:100C7000A18220E030E04AE754E40E947F1A17C0C6
:100C8000E881F98100A0F1A1E02DCA01099520E4D5
:100C900030E0820E931EF4012081318184010054E2
:100CA0001040020F131F2EE5F8012083A1820E943D
:100CB0009C19F8016283672F770F770B638384E0B9
:100CC00049C0E881F98102A0F3A1E02DCA0109958C
:100CD00022EC37E146E05FE30E947F1A6B017C0162
:100CE00020E430E0820E931EF40180819181840122
:100CF00000541040080F191F5EE5B52EF801B082B0
:100D0000A182C701B6010E949C19F8016283272FB6
:100D1000332727FD3A952383B4822BE32583882745
:100D200077FD8095982F0E94CF199B01AC01C701D8
:100D3000B6010E94CB1820E030E040E251E40E946E
:100D40007F1A0E94A119F8016683672F770F770B2E
:100D5000678388E0DF91CF911F910F91FF90EF9013
:100D6000DF90CF90BF90AF909F908F900895CF92DB
:100D7000DF92EF92FF920F931F93CF93DF936B015C
:100D8000EA017C0100E010E03EC0C8018370907071
:100D9000892B59F1D7016C916D3591F0E881F9817A
:100DA0006E35F1F40190F081E02DCE016DE50995ED
:100DB000E881F9810190F081E02DCE016EE31DC044
:100DC000E881F9810190F081E02DCE016DE5099572
:100DD000E881F9810190F081E02DCE016DE30DC035
:100DE0000190F081E02DCE0108C0E881F9810190E9
:100DF000F081E02DCE01D7016C9109950F5F1F4F57
:100E00000894E11CF11C0C151D050CF4BECF80E00C
:100E1000DF91CF911F910F91FF90EF90DF90CF90D6
:100E200008958F929F92AF92BF92CF92DF92EF92EE
:100E3000FF920F931F937C014B015A0110E4C12EC6
:100E4000D12CC80ED91EF6010081118164E20E94E6
:100E50005103080F111DF60111830083C70165E2DC
:100E6000A5010E945103080F111DF6011183008393
:100E7000C70166E2A5010E945103080F111DF6018A
:100E800011830083C70160E1A5010E945103080F8F
:100E9000111DF60111830083C70162E0A5010E94C4
:100EA0005103080F111DF60111830083C70165E08E
:100EB000A5010E945103080F111DF6011183008343
:100EC000C70166E0A5010E945103080F111DF6013C
:100ED00011830083C70168E2A5010E945103080F36
:100EE000111DF60111830083C7016AE3A5010E9469
:100EF0005103080F111DF60111830083C70163E040
:100F0000A5010E945103080F111DF701E00FF11F09
:100F10008EE580830F5F1F4FF60111830083C701A9
:100F2000B801A4010E94B706F601808311821F91C7
:100F30000F91FF90EF90DF90CF90BF90AF909F9078
:100F40008F9008958F929F92AF92BF92CF92DF922F
:100F5000EF92FF920F931F937C014B015A0100E423
:100F6000C02ED12CC80ED91EF6010081118164E17A
:100F70000E945103080F111DF60111830083C70160
:100F800063E1A5010E945103080F111DF6011183B1
:100F90000083C70162E1A5010E945103080F111DE2
:100FA000F60111830083C70161E1A5010E9451038D
:100FB000080F111DF60111830083C70161E0A5012F
:100FC0000E945103080F111DF60111830083C70110
:100FD00064E0A5010E945103080F111DF701E00F05
:100FE000F11F8EE580830F5F1F4FF6011183008391
:100FF000C701B801A4010E94B706F60180831182DF
:101000001F910F91FF90EF90DF90CF90BF90AF9026
:101010009F908F900895CF92DF92EF92FF920F935F
:101020001F93CF93DF938C016B017A01C0E0D0E076
:101030001CC0F601EC0FFD1F60810115110521F0A8
:101040000130110589F405C0E0910504F091060412
:1010500004C0E0910704F0910804A081B1812D91B2
:101060003C91CF01F90109952196CE15DF0508F3D2
:10107000DF91CF911F910F91FF90EF90DF90CF9074
:101080000895FC0180E191E09183808370930604D0
:10109000609305048CE08093000181E0809301015E
:1010A0001092020110920301158216821782108697
:1010B00013821482828380E090E0A0E0B0E0808F11
:1010C000918FA28FB38F848F958FA68FB78F11A228
:1010D00010A213A212A284A395A3A6A3B7A380A7CC
:1010E00091A7A2A7B3A784A795A7A6A7B7A780ABE8
:1010F00091ABA2ABB3AB15AA14AA86AB97ABA0AFCA
:10110000B1AF82AF93AFA4AFB5AFFE968193919389
:10111000A193B19311821082349681939193A193FC
:10112000B19381939193A193B19381939193A1935F
:10113000B19381939193A193B19380839183A2837F
:10114000B3830895FC01208D318D428D538DB901FB
:10115000CA010895FC01648D758D868D978D20E000
:1011600030E04AE754E40E9434190895FC0180A15C
:1011700091A10895FC0164A575A586A597A520E019
:1011800030E048EC52E40E9434190895FC0182A139
:1011900093A19C0153E0220F331F5A95E1F7880F6A
:1011A000991F280F391F84A995A9280F391FC90134
:1011B0000895FC0166A977A980AD91AD28E43DE3CF
:1011C0004FE95CE30E947F1A0895FC01FE9660815E
:1011D00071818281938120E030E048EC52E40E94EA
:1011E00034190895FC01EE5BFF4F808191810895D1
:1011F000FC01EA5BFF4F2081318142815381B901BB
:10120000CA010895FC01E65BFF4F60817181828114
:1012100093810E949C19CB010895FC01E25BFF4F72
:101220002081318142815381B901CA010895FC01B5
:10123000EE5AFF4F2081318142815381B901CA01A9
:101240000895FC01EA5AFF4F208131814281538188
:10125000B901CA01089580E090E0089580E090E02F
:10126000089580E090E008956F927F928F929F9210
:10127000AF92BF92CF92DF92EF92FF920F931F93A4
:101280007A018B01CB01BA010E949C19882777FD56
:101290008095982F0E94CF195B016C01C801B7019E
:1012A000A60195010E94CB1820E030E040E752E40F
:1012B0000E947F1A3B014C010E949C19882777FDF0
:1012C0008095982F0E94CF197B018C01C601B50132
:1012D00020E030E048EC52E40E947F1AA801970118
:1012E0000E94CC185B016C01C401B301A8019701F5
:1012F0000E94CB1820E030E040E752E40E947F1AC1
:1013000020E030E048EC52E40E9434199B01AC012B
:10131000C601B5010E94CC181F910F91FF90EF906C
:10132000DF90CF90BF90AF909F908F907F906F9005
:1013300008950F931F938C01FC0160A571A582A5F0
:1013400093A520E836E948E15BE40E943419AB013B
:10135000BC01C8010E9434091F910F9108950F9399
:101360001F938C01FC0164A175A186A197A120E8BF
:1013700036E948E15BE40E943419AB01BC01C801C5
:101380000E9434091F910F9108952F923F924F921E
:101390005F926F927F928F929F92AF92BF92CF9205
:1013A000DF92EF92FF920F931F93DF93CF93CDB70E
:1013B000DEB72E970FB6F894DEBF0FBECDBF7C010F
:1013C00000E010E053E0C52ED12CCC0EDD1E42E42F
:1013D000242E3AE0432E512C4C0E5D1E2FE0622E3F
:1013E000712C6C0E7D1E99E0892E912C8C0E9D1E09
:1013F00084E9382E5E010894A11CB11CF7013685E2
:101400004089F801E05CFD4F2081F801EC5CFD4F64
:10141000808191819C838B833D834E832F83F1E078
:10142000F8878EEF8987E6E0EA8790919E039B8795
:10143000809100018C87809101018D872E869F5FAE
:1014400090939E036FEF7FEFF2011CC0219126273E
:10145000822F8295807F822790E0382F2227AC014F
:10146000A3E0440F551FAA95E1F724273527672FDE
:10147000772762277327A4E095958795AA95E1F7CA
:1014800068277927E615F70509F7F6011AC0819153
:101490008627282F2295207F282730E0722F662765
:1014A000C90153E0880F991F5A95E1F768277927FA
:1014B0006A277B2744E0359527954A95E1F762270F
:1014C0007327A72FBB27E815F90509F7862F832572
:1014D000282F2295207F282730E0922F8827A901E6
:1014E00073E0440F551F7A95E1F7842795278A27E3
:1014F0009B2764E0359527956A95E1F78227932726
:1015000089839A8380E090E0BF0146E050E00E942A
:101510000B0880E090E0B60146E050E00E940B0826
:1015200080E090E0B50142E050E00E940B080E5FC1
:101530001F4F0C30110509F061CF2E960FB6F894AD
:10154000DEBF0FBECDBFCF91DF911F910F91FF90F6
:10155000EF90DF90CF90BF90AF909F908F907F9053
:101560006F905F904F903F902F9008958F929F9231
:10157000AF92BF92CF92DF92FF920F931F93CF93C0
:10158000DF93F62E4901C82EDD248601000F111FBE
:101590005801AC0CBD1CE501CC0FDD1FCC0FDD1FCD
:1015A000C956DC4F18828B819C818430910509F4E7
:1015B0008EC0853091055CF48230910509F443C0FA
:1015C000833091050CF0BFC09923C4F44FC287301B
:1015D000910509F443C18830910544F485309105A3
:1015E00009F4DEC0069709F041C207C188309105B1
:1015F00009F47AC1099709F039C2E7C18EEF68177B
:1016000009F034C282E090E09C838B8380E790E015
:10161000C89ED001C99EB00DD89EB00D1124A95D01
:10162000BC4F13961C92139788E390E0C89EF0017C
:10163000C99EF00DD89EF00D1124EE0FFF1FE75D3F
:10164000FC4F6083A4C1E5E6E61788F489818F5FCB
:101650008983F501EE0FFF1FEE0FFF1FE756FC4FCA
:1016600080818F5F8083188281E090E02DC080E7C9
:1016700090E0C89EF001C99EF00DD89EF00D112497
:10168000E95DFC4F63831D8280818627282F229588
:10169000207F282730E0522F4427C90163E0880FBC
:1016A000991F6A95E1F748275927818190E04827DB
:1016B000592784E0359527958A95E1F742275327E6
:1016C0005183408384E090E09C838B83CFC18CE185
:1016D00090E0C89EF001C99EF00DD89EF00D112437
:1016E000EE0FFF1FEE0FFF1FE55DFC4F608380E7ED
:1016F00090E0C89EF001C99EF00DD89EF00D112417
:10170000E95DFC4F80818627282F2295207F28279E
:1017100030E0522F4427C901B3E0880F991FBA95D2
:10172000E1F748275927818190E048275927A4E00D
:1017300035952795AA95E1F7422753275183408392
:1017400083E090E0C1CF80E790E0C89EF001C99EA1
:10175000F00DD89EF00D1124E95DFC4F658380816A
:101760008627282F2295207F282730E0522F4427D4
:10177000C90163E0880F991F6A95E1F74827592747
:10178000818190E04827592704E0359527950A95EF
:10179000E1F7422753275183408385E090E094CFBF
:1017A00080E790E0C89EF001C99EF00DD89EF00D34
:1017B0001124E95DFC4F668380818627282F2295BE
:1017C000207F282730E0522F4427C901B3E0880F3B
:1017D000991FBA95E1F748275927818190E048275A
:1017E0005927A4E035952795AA95E1F74227532775
:1017F0005183408386E090E067CF80E790E0C89E09
:10180000F001C99EF00DD89EF00D1124E95DFC4F4A
:10181000678380818627282F2295207F282730E024
:10182000522F4427C90163E0880F991F6A95E1F799
:1018300048275927818190E04827592794E035951A
:1018400027959A95E1F74227532751834083838157
:10185000882309F446C087E090E036CF6D81F80117
:1018600083E0EE0FFF1F8A95E1F7E01BF10B319645
:10187000B3E0EE0FFF1FBA95E1F7E60FF11DE95D4A
:10188000FC4FF0826F5F6D8380E790E0C89EF001AF
:10189000C99EF00DD89EF00D1124E95DFC4F8081AA
:1018A0008F25282F2295207F282730E0522F44278C
:1018B000C90173E0880F991F7A95E1F748275927E6
:1018C000818190E04827592794E0359527959A958E
:1018D000E1F742275327518340838381681709F03A
:1018E000C5C088E090E0F0CE80E790E0C89ED001CF
:1018F000C99EB00DD89EB00D1124A95DBC4F9C911E
:101900001796EC911797F0E0EC5CFE4F80818927E9
:10191000482F4295407F482750E0342F2227CA01A4
:10192000F3E0880F991FFA95E1F7282739271196D8
:101930008C91119790E028273927E4E05595479539
:10194000EA95E1F72427352711963C932E93862FAD
:1019500090E0307082179307F9F0F501EE0FFF1F4A
:10196000EE0FFF1FE756FC4F80818F5F8083188248
:1019700081E090E09C838B83FEEF6F1709F076C0C7
:1019800082E090E09C838B8313961C9213978FEFD9
:101990009FEF8D939C936AC089E090E09C838B833A
:1019A000F80163E0EE0FFF1F6A95E1F7E01BF10B12
:1019B000319653E0EE0FFF1F5A95E1F78D81E80F46
:1019C000F11DE95DFC4FF08251C0262F30E080E729
:1019D00090E0C89EB001C99E700DD89E700D112474
:1019E000695D7C4FFB01818190E028173907E9F0A0
:1019F000F501EE0FFF1FEE0FFF1FE756FC4F808132
:101A00008F5F8083188281E090E09C838B83FEEF60
:101A1000FF1661F582E090E09C838B83EB011B82D3
:101A20008FEF9FEF9983888321C081E0888381E0D5
:101A300090E09C838B83F80133E0EE0FFF1F3A9513
:101A4000E1F7E01BF10B319623E0EE0FFF1F2A9523
:101A5000E1F78D81E80FF11DE85DFC4FF082DA01BE
:101A6000FB0180E701900D928150E1F7D601AA0FAA
:101A7000BB1FAC0DBD1DAA0FBB1FAA0FBB1FA956D4
:101A8000BC4F8C91813069F58CE190E0C89EF001EB
:101A9000C99EF00DD89EF00D1124EE0FFF1FEE0F22
:101AA000FF1FE55DFC4F808116968C931697189664
:101AB0008D919C911997892B21F41B961C921E9253
:101AC0001A97F601EE0FFF1FEC0DFD1DEE0FFF1F25
:101AD000EE0FFF1FE956FC4F808591850196918797
:101AE0008087F601EE0FFF1FEC0DFD1DEE0FFF1FAF
:101AF000EE0FFF1FDF01A956BC4F16968C9116976B
:101B00008F5FE4018E8318968D919C911997998728
:101B10008887E756FC4F80818A871B8610828C91CC
:101B2000DF91CF911F910F91FF90DF90CF90BF90E9
:101B3000AF909F908F900895CF92DF92EF92FF9297
:101B40000F931F93DF93CF93CDB7DEB7CC57D04021
:101B50000FB6F894DEBF0FBECDBF7C01062FFC018F
:101B600083818823E1F40E94251660527E448040E0
:101B70009040A8F40E942516695873418040904017
:101B800070F00A3011F00D3039F4F7018289938931
:101B90000196938B828B03C0F701138A128A2DE082
:101BA000C22ED12CCC0EDD1E80E0602FA6019E013E
:101BB0002F5F3F4F0E94B60A882309F432C101E02B
:101BC000F70103838C89883109F46AC0893130F4C4
:101BD000882359F0813009F024C139C08E3109F4CD
:101BE000E3C08A3409F01DC1A5C0F70103878A89C3
:101BF000868717868B89808B118ADE01559614960D
:101C00008C9114978487158682E490E0E80EF91E83
:101C1000F60180859185F701918380838EEB9FEF9C
:101C2000E80EF91EF701EC5BFF4F16968C9180834E
:101C300011820E942516F70165837683878390873A
:101C40008481882311F0F701028381E0FBC0F60153
:101C50006689778980E090E00E94CD1920E030E02D
:101C60004AE754E40E943419F701608F718F828F24
:101C7000938FF601608D718D882777FD8095982F61
:101C80000E94CF19F701648F758F868F978FF601A9
:101C900086A1992787FD9095F70191A380A3D5CFC1
:101CA000F60160897189828993890E94CF19F701B1
:101CB00064A375A386A397A3F601648975898689B1
:101CC00097890E94CF19F70160A771A782A793A7F0
:101CD0008E010B5E1F4FF801848DF70182A313A2C2
:101CE000F801858DF70184AB15AAF801648975891F
:101CF00080E090E00E94CD19F70160AB71AB82AB40
:101D000093ABF601608D718D828D938D0E94CF19FA
:101D1000F70164A775A786A797A7F801628D738D51
:101D200080E090E00E94CD19F70162AF73AF84AFFD
:101D300095AF8BCFF60184859585A685B785F7018C
:101D400086AB97ABA0AFB1AF86E490E0E80EF91E8A
:101D5000F601608D718D882777FD8095982F0E9400
:101D6000CF19F70161937193819391937F01F601EC
:101D7000628D738D80E090E00E94CD19F701608341
:101D800071838283938384EF9FEFE80EF91EF6013F
:101D900080899189A289B389F70180839183A28385
:101DA000B38382EC9FEF3BC0EEE4F0E0EE0EFF1E4B
:101DB000F601608971898289938921EE3EE245E6C8
:101DC00052E40E947F1AF70161937193819391937A
:101DD0007F018E010B5E1F4FF80164817581868142
:101DE000978121EE3EE245E652E40E947F1AF70118
:101DF00061937193819391937F01F8016485758557
:101E00008685978521EE3EE245E652E40E947F1AE0
:101E1000F70160837183828393838AEA9FEFE80EE0
:101E2000F91EF701848995892B853C85820F931FC4
:101E3000958B848B2B8186899789820F911D978B37
:101E4000868B80E0C458DF4F0FB6F894DEBF0FBE1C
:101E5000CDBFCF91DF911F910F91FF90EF90DF9059
:101E6000CF9008950F931F93CF93DF93FC01738D51
:101E700076957170A685B7859585772329F08C9125
:101E8000892309F454C004C08C91892309F04FC000
:101E90008389948920E001972FEF8F3F9207D9F72C
:101EA000C589D689A685B785158560E031E040E013
:101EB00050E000E0CE01202F01972FEF8F3F9207D7
:101EC000D9F78C91812311F0632B03C0832F809568
:101ED0006823330F4F5F5F4F4830510559F78789AB
:101EE000908D20E001972FEF8F3F9207D9F7711166
:101EF00060958091E5032091E60390E001968F7351
:101F0000907030E08217930779F0E091E503F0E0FC
:101F1000EB55FC4F60838091E50390E001968F7351
:101F200090708093E50303C0838D8160838FDF9180
:101F3000CF911F910F9108951F920F920FB60F929C
:101F400011242F933F934F935F936F937F938F93BE
:101F50009F93AF93BF93EF93FF938091A3039091CF
:101F6000A403009711F00E94320FFF91EF91BF91EF
:101F7000AF919F918F917F916F915F914F913F9121
:101F80002F910F900FBE0F901F9018951F920F92D8
:101F90000FB60F9211242F933F934F935F936F933C
:101FA0007F938F939F93AF93BF93EF93FF93809112
:101FB000A3039091A403009711F00E94320FFF91A8
:101FC000EF91BF91AF919F918F917F916F915F91B1
:101FD0004F913F912F910F900FBE0F901F9018952A
:101FE0001F920F920FB60F9211242F933F934F938E
:101FF0005F936F937F938F939F93AF93BF93EF9371
:10200000FF938091A3039091A403009711F00E9485
:10201000320FFF91EF91BF91AF919F918F917F917F
:102020006F915F914F913F912F910F900FBE0F9045
:102030001F901895CF92DF92EF92FF920F931F930C
:10204000CF93DF93EC017A018B011A8E198E188ED3
:102050001F8A1E8A1D8A1C8A1B8A20E030E06901C3
:10206000CC0CDD1CC20ED31EB601660F771F660FA7
:10207000771FAB0148595F4FFA0185919591A59162
:10208000B4918E159F05A007B107E9F4FB01E4594F
:10209000FF4F859194919C8B8B8BFB01E259FF4FF5
:1020A000859194919E8B8D8BFB01E059FF4F85911B
:1020B0009491988F8F8BFB01EE58FF4F85919491EF
:1020C0009A8F898F06C02F5F3F4F2D30310509F061
:1020D000C6CF8F89988D892B09F449C04C8546312C
:1020E00008F03DC090916800483010F484E005C0CD
:1020F0004E3010F082E001C081E0892B80936800AF
:10210000483028F4EDE6F0E0ADE6B0E00BC04E302C
:1021100028F0ECE6F0E0ACE6B0E004C0EBE6F0E07E
:10212000ABE6B0E05081483040F481E090E002C07E
:10213000880F991F4A95E2F710C0242F30E04E30E7
:1021400018F42850304002C02E50304081E090E01A
:1021500002C0880F991F2A95E2F7852B8C93898DF1
:102160009A8D20E001972FEF8F3F9207D9F780914A
:10217000A3039091A4038C179D0781F08B8D8E7F14
:102180008B8F9FB7F8941092E5038091E5038093BD
:10219000E603D093A403C093A3039FBFDF91CF9125
:1021A0001F910F91FF90EF90DF90CF9008952091B5
:1021B000A3033091A4032817390731F49091E60363
:1021C0008091E503981719F42FEF3FEF0FC0E091CE
:1021D000E603F0E0EB55FC4F20818091E60390E0B0
:1021E00001968F7390708093E60330E0C9010895E3
:1021F0002091A3033091A4032817390719F020E098
:1022000030E00EC08091E5032091E60390E0805C11
:102210009F4F821B910960E470E00E94E21A9C01CA
:10222000C90108950F931F93DC0159968D919C91DC
:102230005A97892B49F481E090E013969C938E93F2
:10224000129720E030E097C00FB7F8945B968C911E
:102250005B975196ED91FC91529750962C91509727
:1022600081FF8DC08081822B808359968D919C91B6
:102270005A97059620E001972FEF8F3F9207D9F7E5
:102280005B968C915B9781FF35C031E040E050E078
:1022900070E010E0832F90E0862397235196ED9114
:1022A000FC91529750962C915097892B29F0808160
:1022B00020952823208303C08081822B8083599618
:1022C0008D919C915A97212F01972FEF8F3F920765
:1022D000D9F7330F4F5F5F4F48305105D9F651960C
:1022E000ED91FC915297908150968C9150978095EA
:1022F000892333C031E040E050E070E010E0832FEC
:1023000090E0862397235196ED91FC915297509639
:102310002C915097892B21F08081822B808304C0DF
:10232000808120952823208359968D919C915A97DE
:10233000212F01972FEF8F3F9207D9F7330F4F5F70
:102340005F4F48305105D9F65196ED91FC91529767
:10235000808150969C915097892B80830FBF59960E
:102360008D919C915A9720E001972FEF8F3F920714
:10237000D9F721E030E0C9011F910F9108958081C4
:1023800020952823208371CF2091A3033091A403AB
:102390002817390749F49FB7F8941092E503809104
:1023A000E5038093E6039FBF08952091A303309136
:1023B000A4032817390731F49091E6038091E503CF
:1023C000981719F42FEF3FEF0AC0E091E603F0E011
:1023D000EB55FC4F8081282F332727FD3095C9010D
:1023E00008951F93CF93DF93EC01162F862F60E0A3
:1023F0000E94C7168B8D81FD04C0812F61E00E9471
:1024000006171C87212F30E0C9018A5C9E4FFC0112
:1024100084918D872E5D3E4FF9016491E62FF0E0A7
:10242000EE0FFF1FE85EFE4F859194919F878E8788
:10243000DF91CF911F910895FF920F931F938C010D
:10244000F62E862F61E00E94C7168F2D61E00E9454
:1024500006178F2D90E0FC01EA5CFE4FE491D80155
:102460005096EC9350978E5D9E4FFC016491E62F41
:10247000F0E0EE0FFF1FE25FFE4F859194915296C0
:102480009C938E9351971F910F91FF900895FF9207
:102490000F931F938C01F62EFC011382128288EE9B
:1024A00093E0A0E0B0E084839583A683B78380E5C2
:1024B00092E091838083148A138A168A158A108E7B
:1024C000178A128E118E838D2170220F8C7F822BA2
:1024D000838FC801642F0E941C12C8016F2D0E94B7
:1024E000F1111F910F91FF9008950F931F936115A4
:1024F00071058105910569F481E090E0A0E0B0E00C
:102500008093E7039093E803A093E903B093EA0371
:1025100008C06093E7037093E8038093E903909306
:10252000EA031093EC030093EB03809170008E7F1D
:10253000809370008091B0008C7F8093B000809178
:10254000B100877F8093B1008091B6008F7D80932A
:10255000B600809170008D7F809370008091B100F3
:1025600084608093B1008091B1008C7F8093B10032
:10257000CA01B90120E034E244E75BE40E947F1A1B
:1025800020E030E040E85CE30E947F1A0E949C1942
:1025900020E031E0261B370B3093F3032093F20346
:1025A0001F910F9108951092ED031092EE03109277
:1025B000EF031092F0031092F1038091F2039091D7
:1025C000F3038093B200E0E7F0E0808181608083D4
:1025D00008958091ED039091EE03A091EF03B091E7
:1025E000F0030196A11DB11D8093ED039093EE03BE
:1025F000A093EF03B093F0038091ED039091EE036D
:10260000A091EF03B091F0032091E7033091E8032C
:102610004091E9035091EA0382179307A407B50795
:1026200010F18091F1038823F1F481E08093F103AC
:102630008091ED039091EE03A091EF03B091F00330
:10264000821B930BA40BB50B8093ED039093EE03C9
:10265000A093EF03B093F003E091EB03F091EC0350
:1026600009951092F10308951F920F920FB60F92E1
:1026700011242F933F934F935F936F937F938F9387
:102680009F93AF93BF93EF93FF938091F203909149
:10269000F3038093B2000E94E912FF91EF91BF9182
:1026A000AF919F918F917F916F915F914F913F91EA
:1026B0002F910F900FBE0F901F9018950F931F939F
:1026C000DC01ED91FC910288F389E02D20E030E0FF
:1026D00000E010E009951F910F9108958F92AF923D
:1026E000CF92EF92FF920F931F93DF93CF93CDB7CB
:1026F000DEB7FC011382128288EE93E0A0E0B0E026
:1027000084839583A683B78380E692E09183808358
:102710005587448737872687118B008BF38AE28A97
:10272000C48AA58A868A70E0CB0123E0880F991FAE
:102730002A95E1F79C012C503C4F308F278B845019
:102740009C4F928F818F81E090E002C0880F991F8B
:102750006A95E2F720910404282B20930404CF010A
:1027600040E051EE60E070E00E945E13CF91DF9197
:102770001F910F91FF90EF90CF90AF908F900895A1
:10278000FC01838D882319F42FEF3FEF0DC00788DC
:10279000F08DE02D2081318182819381281B390BBE
:1027A0008481958128233923C9010895FC01838DF3
:1027B000882319F42FEF3FEF11C0018CF28DE02D2B
:1027C0002081318182819381281B390B209530959E
:1027D00084819581282339232F5F3F4FC9010895B4
:1027E000FC01838D882361F0A789B08D2D913C91E8
:1027F000119712968D919C9113972817390721F400
:102800004FEF5FEFCA01089512968D919C91139737
:102810001696ED91FC911797E80FF91F40811296DB
:102820008D919C911397019614962D913C9115973B
:102830008223932313969C938E93129750E0E2CFBA
:10284000FC01838D882351F00788F08DE02D2081D5
:102850003181828193812817390721F42FEF3FEFCF
:10286000C9010895828193810680F781E02DE80FE8
:10287000F91F8081282F30E0F3CFDC015796ED91CE
:10288000FC91589782819381918380835996ED9131
:10289000FC915A9780819181938382830895DC0112
:1028A0005B968C915B978823A9F15996ED91FC91E9
:1028B0005A97208131812F5F3F4F84819581282352
:1028C00039235C968C915C97882329F082819381CF
:1028D00028173907F9F08281938128173907D9F32E
:1028E000808191810680F781E02DE80FF91F6083D8
:1028F0005996ED91FC915A97318320835296ED9130
:10290000FC915397808156969C91892B808321E07E
:1029100030E002C020E030E0C9010895CF93DF939A
:10292000EC011B821A828A819B81998388831D8294
:102930001C828E819F81009721F00E94F7171F82D1
:102940001E82DF91CF9108950F931F938C01DC01BC
:102950005296ED91FC915397208156968C91569703
:1029600055969C915597892B809582238083579605
:102970008D919C9158970E948E14F801818D928DB3
:102980000E948E14D8015B961C921F910F9108959E
:102990000F931F93CF93DF938C01FC01138212825C
:1029A000828193819183808341E0A1E0B0E001C006
:1029B0004F5FFD01042E02C0EE0FFF1F0A94E2F7E5
:1029C0009B0182E06130780710F020E032E0E217EE
:1029D000F30770F3C1E0D0E002C0CC0FDD1F4A95D1
:1029E000E2F72197F801268137812115310541F061
:1029F000848195818C179D0789F0C9010E94F71782
:102A0000F801D583C483CE0101960E945A179C0118
:102A1000F8019783868380E0232B09F081E0DF9122
:102A2000CF911F910F910895AF92BF92CF92DF92F5
:102A3000EF92FF920F931F93CF93DF937C015A0184
:102A40006B01E901DC015B968C915B978823F1F0C7
:102A50002115310539F45796ED91FC915897C481B1
:102A6000D58121960115110549F4D7015996ED91AB
:102A7000FC915A97048115810F5F1F4FD701ED918B
:102A8000FC910088F189E02DC7010995F70187893C
:102A9000908D209711F4C0E8D0E0BE010E94C814C8
:102AA000882381F0D70159968D919C915A970115F1
:102AB000110511F400E110E0B8010E94C814882348
:102AC00009F04DC0D701ED91FC910088F189E02D0E
:102AD000C701099567C0D7015096ED91FC915197B8
:102AE000B0E0AB16B1EEBB06B0E0CB06B0E0DB0663
:102AF00009F454C081E090E0D70154960C9002C0D4
:102B0000880F991F0A94E2F7808360E079E08DE3F3
:102B100090E0A60195010E94171B215030404040D3
:102B20005040CA01B90122E030E040E050E00E948C
:102B3000171BD7011C96ED91FC911D9730831E96B3
:102B4000ED91FC911F972083D7015296ED91FC9156
:102B50005397808155969C91892B808323C0D70100
:102B60005996ED91FC915A9713821282828193813A
:102B7000918380835796ED91FC915897138212822E
:102B8000828193819183808381E05B968C931A1478
:102B90001B041C041D040CF49ECFD6CF108220E130
:102BA00030E0C7CFDF91CF911F910F91FF90EF9051
:102BB000DF90CF90BF90AF9008951F920F920FB605
:102BC0000F9211242F933F938F939F93AF93BF93B3
:102BD00080910D0490910E04A0910F04B091100407
:102BE000309111040196A11DB11D232F2D5F2D37AA
:102BF00020F02D570196A11DB11D20931104809343
:102C00000D0490930E04A0930F04B09310048091D0
:102C1000090490910A04A0910B04B0910C04019650
:102C2000A11DB11D8093090490930A04A0930B0485
:102C3000B0930C04BF91AF919F918F913F912F91D1
:102C40000F900FBE0F901F9018958FB7F89420919A
:102C50000D0430910E0440910F04509110048FBF69
:102C6000B901CA0108959B01AC017FB7F894809126
:102C7000090490910A04A0910B04B0910C0466B56C
:102C8000A89B05C06F3F19F00196A11DB11D7FBF24
:102C9000BA2FA92F982F8827860F911DA11DB11D2E
:102CA00062E0880F991FAA1FBB1F6A95D1F7BC016C
:102CB0002DC0FFB7F8948091090490910A04A09167
:102CC0000B04B0910C04E6B5A89B05C0EF3F19F0CA
:102CD0000196A11DB11DFFBFBA2FA92F982F8827DC
:102CE0008E0F911DA11DB11DE2E0880F991FAA1F33
:102CF000BB1FEA95D1F7861B970B885E9340C8F2FD
:102D0000215030404040504068517C4F21153105E2
:102D10004105510571F60895789484B5826084BDAB
:102D200084B5816084BD85B5826085BD85B58160CF
:102D300085BDEEE6F0E0808181608083E1E8F0E02F
:102D40001082808182608083808181608083E0E85E
:102D5000F0E0808181608083E1EBF0E0808184603D
:102D60008083E0EBF0E0808181608083EAE7F0E03F
:102D700080818460808380818260808380818160A3
:102D800080838081806880831092C1000895CF93F2
:102D9000DF93482F50E0CA018A5C9E4FFC013491BA
:102DA0004E5D5E4FFA018491882369F190E0880FAF
:102DB000991FFC01EC5FFE4FA591B491FC01E25F0D
:102DC000FE4FC591D491662351F42FB7F8948C919E
:102DD000932F909589238C93888189230BC062302F
:102DE00061F42FB7F8948C91932F909589238C934D
:102DF0008881832B88832FBF06C09FB7F8948C915E
:102E0000832B8C939FBFDF91CF910895482F50E083
:102E1000CA01865B9E4FFC012491CA018A5C9E4FC9
:102E2000FC0194914E5D5E4FFA013491332309F415
:102E300040C0222351F1233071F0243028F4213096
:102E4000A1F0223011F514C02630B1F02730C1F0C6
:102E50002430D9F404C0809180008F7703C0809122
:102E600080008F7D8093800010C084B58F7702C072
:102E700084B58F7D84BD09C08091B0008F7703C079
:102E80008091B0008F7D8093B000E32FF0E0EE0FD3
:102E9000FF1FE25FFE4FA591B4912FB7F894662310
:102EA00021F48C919095892302C08C91892B8C936D
:102EB0002FBF08950F931F93CF93DF93BC018230F0
:102EC000910510F462E070E0E0911404F0911504B3
:102ED00040E050E0A0E0B0E024C0808191818617FE
:102EE0009707D0F08617970771F482819381109726
:102EF00029F013969C938E9312972CC090931504EF
:102F00008093140427C04115510519F084179507C3
:102F100018F48D01AC01EF01DF01828193819C01E6
:102F2000F9013097D1F641155105F9F0CA01861B18
:102F3000970B8430910580F48A819B8101151105DE
:102F400021F0F8019383828304C090931504809349
:102F50001404FE01329645C0FE01E80FF91F61938B
:102F600071930297998388833CC080911204909159
:102F70001304892B41F480910801909109019093E9
:102F800013048093120440910A0150910B014115E2
:102F9000510541F44DB75EB780910601909107014C
:102FA000481B590B20911204309113042417350744
:102FB000B0F4CA01821B930B8617970780F0AB0110
:102FC0004E5F5F4F8417950750F0420F531F509389
:102FD000130440931204F9016193719302C0E0E07D
:102FE000F0E0CF01DF91CF911F910F910895CF9322
:102FF000DF939C01009709F48FC0EC0122971B829C
:103000001A8260911404709115046115710581F4A0
:1030100088819981820F931F2091120430911304AB
:103020002817390739F5D0931304C093120474C0DC
:10303000DB0140E050E0AC17BD0708F1BB83AA8379
:10304000FE0121913191E20FF31FAE17BF0779F412
:103050008D919C911197280F391F2E5F3F4F398317
:10306000288312968D919C9113979B838A83411597
:10307000510571F4D0931504C09314044DC01296F9
:103080008D919C911397AD01009711F0DC01D3CF86
:10309000DA011396DC93CE931297FA0121913191C4
:1030A000E20FF31FCE17DF0769F488819981280F9B
:1030B000391F2E5F3F4FFA01318320838A819B8124
:1030C00093838283E0E0F0E0DB0112968D919C9186
:1030D0001397009719F0BC01FD01F6CFAB014E5FCD
:1030E0005F4FDB018D919C91840F951F20911204FD
:1030F000309113042817390779F4309729F4109286
:1031000015041092140402C01382128242505040DF
:103110005093130440931204DF91CF910895CF93FD
:10312000DF930E948C160E94D602C0E0D0E00E947D
:103130003D022097E1F30E940000F9CF0E945A1748
:103140000895CF92DF92EF92FF920F931F93CF9348
:10315000DF937C016B018A01C0E0D0E00FC0D60193
:103160006D916D01D701ED91FC910190F081E02D01
:10317000C7010995C80FD91F01501040011511054D
:1031800071F7CE01DF91CF911F910F91FF90EF90DA
:10319000DF90CF9008955058BB27AA270ED075C155
:1031A00066D130F06BD120F031F49F3F11F41EF462
:1031B0005BC10EF4E095E7FB51C1E92F77D180F3B5
:1031C000BA17620773078407950718F071F49EF524
:1031D0008FC10EF4E0950B2EBA2FA02D0B01B90173
:1031E00090010C01CA01A0011124FF27591B99F07D
:1031F000593F50F4503E68F11A16F040A22F232F89
:10320000342F4427585FF3CF469537952795A795D8
:10321000F0405395C9F77EF41F16BA0B620B730B7F
:10322000840BBAF09150A1F0FF0FBB1F661F771FF0
:10323000881FC2F70EC0BA0F621F731F841F48F4A5
:10324000879577956795B795F7959E3F08F0B3CF2B
:103250009395880F08F09927EE0F97958795089515
:10326000D9D008F481E008950CD00FC107D140F007
:10327000FED030F021F45F3F19F0F0C0511139C198
:10328000F3C014D198F39923C9F35523B1F3951BD7
:10329000550BBB27AA2762177307840738F09F5F77
:1032A0005F4F220F331F441FAA1FA9F333D00E2EE6
:1032B0003AF0E0E830D091505040E695001CCAF753
:1032C00029D0FE2F27D0660F771F881FBB1F261718
:1032D00037074807AB07B0E809F0BB0B802DBF01EB
:1032E000FF2793585F4F2AF09E3F510568F0B6C004
:1032F00000C15F3FECF3983EDCF3869577956795C8
:10330000B795F7959F5FC9F7880F911D969587959B
:1033100097F90895E1E0660F771F881FBB1F6217BA
:1033200073078407BA0720F0621B730B840BBA0B78
:10333000EE1F88F7E095089504D06894B111D9C0C4
:103340000895BCD088F09F5790F0B92F9927B751B6
:10335000A0F0D1F0660F771F881F991F1AF0BA9559
:10336000C9F712C0B13081F0C3D0B1E00895C0C038
:10337000672F782F8827B85F39F0B93FCCF386954F
:1033800077956795B395D9F73EF4909580957095AC
:1033900061957F4F8F4F9F4F0895E89409C097FB29
:1033A0003EF490958095709561957F4F8F4F9F4F1C
:1033B0009923A9F0F92F96E9BB279395F695879560
:1033C00077956795B795F111F8CFFAF4BB0F11F423
:1033D00060FF1BC06F5F7F4F8F4F9F4F16C08823CA
:1033E00011F096E911C0772321F09EE8872F762F00
:1033F00005C0662371F096E8862F70E060E02AF041
:103400009A95660F771F881FDAF7880F969587952C
:1034100097F90895990F0008550FAA0BE0E8FEEF01
:1034200016161706E807F907C0F012161306E40788
:10343000F50798F0621B730B840B950B39F40A2681
:1034400061F0232B242B252B21F408950A2609F45F
:10345000A140A6958FEF811D811D089597F99F6763
:1034600080E870E060E008959FEF80EC089500240C
:103470000A941616170618060906089500240A94D9
:1034800012161306140605060895092E0394000C5F
:1034900011F4882352F0BB0F40F4BF2B11F460FFEE
:1034A00004C06F5F7F4F8F4F9F4F089557FD905817
:1034B000440F551F59F05F3F71F04795880F97FBF8
:1034C000991F61F09F3F79F08795089512161306B2
:1034D0001406551FF2CF4695F1DF08C016161706E1
:1034E0001806991FF1CF8695710561050894089516
:1034F000E894BB2766277727CB0197F908950BD06F
:10350000C4CFB5DF28F0BADF18F0952309F0A6CFB5
:10351000ABCF1124EECFCADFA0F3959FD1F3950F67
:1035200050E0551F629FF001729FBB27F00DB11D47
:10353000639FAA27F00DB11DAA1F649F6627B00DD7
:10354000A11D661F829F2227B00DA11D621F739FC0
:10355000B00DA11D621F839FA00D611D221F749FCE
:103560003327A00D611D231F849F600D211D822F15
:10357000762F6A2F11249F5750408AF0E1F088235C
:103580004AF0EE0FFF1FBB1F661F771F881F915069
:103590005040A9F79E3F510570F060CFAACF5F3F22
:1035A000ECF3983EDCF3869577956795B795F7959C
:1035B000E7959F5FC1F7FE2B880F911D9695879524
:1035C00097F9089597FB092E07260AD077FD04D0B6
:1035D00049D006D000201AF4709561957F4F089568
:1035E000F6F7909581959F4F0895A1E21A2EAA1B98
:1035F000BB1BFD010DC0AA1FBB1FEE1FFF1FA217A3
:10360000B307E407F50720F0A21BB30BE40BF50B9F
:10361000661F771F881F991F1A9469F76095709528
:10362000809590959B01AC01BD01CF01089597FB5A
:10363000092E05260ED057FD04D0D7DF0AD0001C76
:1036400038F450954095309521953F4F4F4F5F4F3F
:103650000895F6F790958095709561957F4F8F4FFF
:103660009F4F0895AA1BBB1B51E107C0AA1FBB1F98
:10367000A617B70710F0A61BB70B881F991F5A95FE
:10368000A9F780959095BC01CD010895EE0FFF1F1D
:0C3690000590F491E02D0994F894FFCF10
:10369C000C01000000008000160400000000000077
:1036AC00BA08F2080209B608C608E508D90899094B
:1036BC00AF09F8082B0931092E090D091709210941
:1036CC00AA08A208327C8900EDD96877000000595D
:1036DC000000000000000000D69FDCA81817AA907C
:1036EC00437327F6B968EDF4DED409FEE61C1C849E
:1036FC00DDE80B992927D6DF8D210F036418EFEE37
:10370C001EF0B7828200941500347C000000140077
:10371C00988F0000000000000000000000E7B73F99
:10372C003600000000000000AF669ED0380000009C
:10373C00000000000000000000000000000000007D
:10374C00000000000000000000000000000000006D
:10375C000000000000000000000086DBD0BC541606
:10376C00131586004E44BD7F6F15159001000000A7
:10377C00000000000000000000000000000000003D
:10378C00000000000000000000000000000000002D
:10379C00000000000000000000000000000000001D
:1037AC00000000000000000000000000000000000D
:1037BC0000000000000000000000000000CC31AA56
:1037CC002C532E000200020005000200050002002E
:1037DC0001000200030006000A000B0000000000BC
:1037EC001211A118F810D710D511C4110000000047
:1037FC004F14A118C013F01320143D14D6135E13EC
:04380C00A4141415D7
:00000001FF
