:100000000C945A2A0C948B2A0C948B2A0C948B2ACD
:100010000C948B2A0C948B2A0C948B2A0C9434E825
:100020000C948B2A0C948B2A0C948B2A0C948B2A7C
:100030000C948B2A0C948B2A0C948B2A0C94FAFA2D
:100040000C948B2A0C948B2A0C948B2A0C948B2A5C
:100050000C948B2A0C948B2A0C948B2A0C948B2A4C
:100060000C948B2A0C94D4E80C9403E90C948B2AFE
:100070000C948B2A0C948B2A0C948B2A0C948B2A2C
:100080000C948B2A0C948B2A0C948B2A0C948B2A1C
:100090000C943EE90C946DE90C948B2A0C940BEDB6
:1000A0000C948B2A0C9427FB0C948B2A0C948B2A8F
:1000B0000C948B2A0C948B2A0C9454FB0C948B2A52
:1000C0000C948B2A0C948B2A0C9455F30C94A8E96D
:1000D0000C94D7E90C948B2A0C948B2A0C948B2AC1
:1000E0000C948B2A8A2E8F2E942E992E9E2EA32E20
:1000F000A82EAD2EB22EB72EBC2EC12ECC2EC62EC3
:100100000E6C116C146C176C1A6C1D6C206C236CCB
:10011000276CE9739673D1739F73B373D173E973CB
:10012000D173E973D6738F74AE74A475D8752276C3
:1001300073768076BC7649777A78777A8F7A977AF1
:100140007F7A877A9F7AE77AC77ABF7AB77ACF7A47
:10015000D77ADF7AA77AAF7A2C7B017BEF7A127B92
:10016000197B207B2C7B277B2197199729972E972A
:100170004F9741975B973A97489756976297699739
:100180001298769723A9DDAB87A93CA955A998A910
:10019000CBA9DDABB9AA84AADDAB20AADDABBAA995
:1001A000DDABDDABD1AAEAAA03ABDDAB6EA939AA00
:1001B0006BAADDAB97AAA9A9DDAB52AADDAB1CAB3C
:1001C0002DAB3EABDDABEDA9FEA90FAADCA957AB69
:1001D00087ABA8AAA0ABABACC9ACDEACE3AE3DAD7F
:1001E000A5AD14AD52ADE3AEE3AEE3AEE3AEE3AE28
:1001F000E3AEE3AEE3AEE3AEE3AEE3AEE3AEE3AE77
:10020000E3AEE3AEE3AED3ADE3AEE4ADFAADFFAD46
:10021000E7AD07B217B220B22AB260B36BB260B3D7
:1002200005B30BB314B31FB31DB227B360B339B317
:1002300042B351B302BB20BB25BB2CBB31BBB3C700
:1002400038BBB3C7B3C7B3C73DBB44BB49BB84EFDF
:1002500084EF89EF89EF89EF8EEF8EEF8EEFA0EFBD
:1002600093EF93EFADEFB1EFB7EFBBEFBFEFC5EF9C
:10027000C9EFCDEFDCEFD3EFD7EF0FF013F019F0AC
:100280001DF021F027F02BF02FF03EF035F039F083
:1002900080F085F08AF08FF094F099F09EF0A3F052
:1002A000B1F0A8F0ADF0DFF0E4F0E9F0EEF0F3F03B
:1002B000F8F0FDF002F111F107F10CF1C0FBC0FB09
:1002C000D0FBF2FBE6FBF9FB00FC10FC28FC65FC14
:1002D00068274A28BA29CA287E29F8275629462994
:1002E0003A298227CC27A4294E273C29DE29F82841
:1002F000002AE8297228D229AE28C0286E286C2945
:10030000B4282228142A1E2A2028AE272028202894
:100310000228342720282028FE2718289E28202855
:10032000202820282028202820282028202820288D
:1003300020282028182A2028202820282028202883
:10034000202820284C277028202858296428202875
:100350005628BE2720282028202820280C288C2931
:100360003C2AE0275228C429AA280C298827EE27EE
:1003700048279428222AB829D4278429FA275229E1
:10038000D827222974272C29502876280E2A482A73
:100390007E28AC27CA27A8277C29B827EC27002964
:1003A0004A29F629A6294A27E229DA278A27E229B3
:1003B000DA278A27E229DA278A27B42764296429D9
:1003C000B427B42764296429B427B427B427B427F1
:1003D000036EDB363D9A9999993DABAAAA2A3E0055
:1003E0000000803F084AD73B3BCE016E84BCBFFD76
:1003F000C12F3D6C74319ABD56833DDA3D00C77FF5
:1004000011BED9E4BB4C3E916BAAAABE000000808D
:100410003F072C7AA5BA6CC590DA3B9365FC8BBC80
:1004200053F810FD3C5692834DBD879D3AB63DCBA7
:10043000C9BF5BBE73DA0FC93F05A84CCDB2D44E1D
:10044000B93836A9020C50B9918688083CA6AAAAE8
:100450002ABE000000803F08000000BE922449121E
:100460003EABAAAA2ABECDCCCC4C3E00000080BE3A
:10047000ABAAAAAA3E00000000BF000000803F0017
:1004800000000000084178D3BB4387D1133D190E0B
:100490003CC3BD4282AD2B3E68EC8276BED98FE173
:1004A000A93E4C80EFFFBE01C4FF7F3F000000006B
:1004B000000664EC1B3C04BC163E3BE5B93CC93C61
:1004C00037C29E5A3D660498083EEA69AAAA3E00D1
:1004D0000000803F0253595349445F53575F4D52C8
:1004E0004556000000000068070000000001535955
:1004F0005349445F53575F54595045000000000171
:100500006A07000020410253595349445F54484947
:10051000534D415600000000706B070000803F0201
:1005200053595349445F4D5947435300000000005D
:1005300000716D0700007F430153455249414C3320
:100540005F424155440000000000726F07000064E4
:10055000420154454C454D5F44454C415900000013
:10056000000000737007000000000252544C5F410D
:100570004C5400000000000000000000A0710700C3
:1005800080BB4401534F4E41525F454E41424C4562
:1005900000000000009473070000000001534F4E5C
:1005A00041525F54595045000000000000009A7409
:1005B000070000000004534F4E41525F4741494E2F
:1005C000000000000000001E75070000004001460A
:1005D000535F424154545F454E41424C4500000038
:1005E000C17907000000000446535F424154545F44
:1005F000564F4C544147450000977A070000284168
:100600000446535F424154545F4D4148000000008E
:100610000000257E07000000000146535F4750534D
:100620005F454E41424C4500000000C38207000078
:10063000803F0146535F4743535F454E41424C451F
:1006400000000000C6830700000000024750535F0F
:1006500048444F505F474F4F440000000023840739
:1006600000004843014D41475F454E41424C450023
:100670000000000000009286070000803F01464C09
:100680004F575F454E41424C450000000000009628
:100690008707000000000153555045525F53494DF4
:1006A000504C4500000000009B880700000000023D
:1006B00052544C5F414C545F46494E414C0000003F
:1006C00000A389070000000001525353495F5049BD
:1006D0004E000000000000000000188C07000080A1
:1006E000BF0157505F5941575F4245484156494FF6
:1006F0005200001A8D07000000400157505F544F10
:1007000054414C000000000000000000D39407009A
:100710000000000157505F494E444558000000005A
:100720000000000000D49507000000000243495279
:10073000434C455F52414449555300000000D79651
:10074000070000204104434952434C455F52415445
:10075000450000000000001D98070000A041035262
:10076000544C5F4C4F49545F54494D4500000000C4
:10077000A29C0700409C45024C414E445F535045AB
:10078000454400000000000000D9A00700004842D6
:100790000250494C4F545F56454C5A5F4D415800EA
:1007A00000001CA20700007A43025448525F4D49E2
:1007B0004E00000000000000000000B4A40700008C
:1007C0000243025448525F4D4158000000000000AF
:1007D00000000000B5A60700007A440146535F54AC
:1007E00048525F454E41424C4500000000B6A80704
:1007F000000000000246535F5448525F56414C557A
:10080000450000000000B8A90700C073440254521C
:10081000494D5F5448524F54544C4500000000B9B4
:10082000AB070000E143025448525F4D49440000C9
:100830000000000000000000C2AD070000FA430104
:10084000464C544D4F44453100000000000000006C
:1008500000C8AF070000000001464C544D4F44450E
:1008600032000000000000000000C9B007000000D6
:100870000001464C544D4F44453300000000000039
:10088000000000CAB1070000000001464C544D4F63
:10089000444534000000000000000000CBB2070017
:1008A00000000001464C544D4F4445350000000007
:1008B0000000000000CCB3070000000001464C54CB
:1008C0004D4F444536000000000000000000CDB44C
:1008D00007000000000153494D504C450000000046
:1008E00000000000000000CEB50700000000024C30
:1008F0004F475F4249544D41534B000000000000F8
:1009000014B60700804F4401455343000000000027
:10091000000000000000000000BAB807000000005E
:100920000154554E4500000000000000000000008A
:100930000000BBB907000000000254554E455F4C53
:100940004F57000000000000000000BDBC07000081
:1009500000000254554E455F4849474800000000DA
:1009600000000000BCBA0700007A44014652414D25
:100970004500000000000000000000000095BE07D8
:100980000000803F014348375F4F50540000000093
:1009900000000000000098BF07000000000143486D
:1009A000385F4F5054000000000000000000001F9E
:1009B000C007000000000141524D494E475F4348C7
:1009C00045434B000000000020C1070000803F02AB
:1009D000414E474C455F4D4158000000000000006B
:1009E00000228E0700A08C4503414E474C455F52C4
:1009F0004154455F4D415800000026900700A08CEF
:100A000046085243315F0000000000000000000073
:100A1000000000AAC207CE3E0000085243325F0029
:100A2000000000000000000000000000ABDF07CE67
:100A30003E0000085243335F000000000000000049
:100A40000000000000ACFC07CE3E0000085243341A
:100A50005F00000000000000000000000000AD1971
:100A600008CE3E0000085243355F00000000000041
:100A700000000000000000AE3608643F000008528D
:100A800043365F000000000000000000000000008E
:100A9000AF5408643F0000085243375F0000000075
:100AA000000000000000000000B07208643F000079
:100AB000085243385F000000000000000000000002
:100AC0000000B19008643F000008524331305F00DD
:100AD0000000000000000000000000B2AE08643F0B
:100AE000000008524331315F0000000000000000A8
:100AF00000000000B3CC08643F00000252435F5383
:100B000050454544000000000000000000C0EA0815
:100B10000000F543044143524F5F52505F500000C4
:100B2000000000000000DDEC08000090400441439C
:100B3000524F5F5941575F5000000000000000F421
:100B4000F00800009040044143524F5F42414C5F27
:100B5000524F4C4C00000000F2F4080000803F04AB
:100B60004143524F5F42414C5F504954434800005B
:100B700000F3F8080000803F014143524F5F545298
:100B800041494E455200000000001BFC08000000D7
:100B900040014C45445F4D4F4445000000000000BB
:100BA0000000009E8B070000104108524154455F31
:100BB000524C4C5F0000000000000000DFFD0851B7
:100BC0003E000008524154455F5049545F00000008
:100BD0000000000000E01709513E00000852415497
:100BE000455F5941575F0000000000000000E131FF
:100BF00009513E0000084C4F495445525F4C415446
:100C00005F000000000000E74B09513E0000084C67
:100C10004F495445525F4C4F4E5F000000000000AA
:100C2000E86509513E0000085448525F524154455E
:100C30005F0000000000000000EC7F09513E000052
:100C4000085448525F414343454C5F000000000098
:100C50000000F19909513E0000084F465F524C4C8C
:100C60005F00000000000000000000EDB309513EED
:100C70000000084F465F5049545F0000000000002C
:100C800000000000EECD09513E0000085354425FC1
:100C9000524C4C5F000000000000000000E2030A1C
:100CA000ED3D0000085354425F5049545F0000007E
:100CB000000000000000E3110AED3D00000853545D
:100CC000425F5941575F000000000000000000E44F
:100CD0001F0AED3D0000085448525F414C545F002C
:100CE0000000000000000000EB2D0AED3D000008B0
:100CF000484C445F4C41545F00000000000000007D
:100D000000E5E709ED3D000008484C445F4C4F4EBC
:100D10005F000000000000000000E6F509ED3D0066
:100D2000000843414D5F000000000000000000008B
:100D3000000000A58D0E894000000852454C415925
:100D40005F00000000000000000000000D4110578F
:100D500040000008434F4D504153535F00000000D6
:100D600000000000009342107138000008494E5303
:100D70005F0000000000000000000000000003C44D
:100D80000BFB39000008494E41565F00000000008F
:100D90000000000000000064400CE1420000085721
:100DA000504E41565F0000000000000000000000AF
:100DB000655C0F2C430000085352305F00000000B8
:100DC0000000000000000000006EB80EE30E0000FE
:100DD000085352335F0000000000000000000000D4
:100DE00000006F0A0FE30E000008414852535F00F5
:100DF00000000000000000000000009F560ADA3CDE
:100E00000000084D4E545F0000000000000000008C
:100E100000000000A6220E1F410000084241545469
:100E20005F000000000000000000000000243907FF
:100E3000514D000008474E445F00000000000000D4
:100E40000000000000000B24110E35000008534381
:100E50004845445F00000000000000000000000C56
:100E60003F0A5A4C00000846454E43455F000000CB
:100E70000000000000000000458906AB4B000008A0
:100E8000475053474C495443485F0000000000005E
:100E90000046A91157310000084D4F545F00000073
:100EA000000000000000000000005A520DAF3F009B
:100EB000000852434D41505F000000000000000058
:100EC000000000C7C911D44C000000000000000061
:100ED0000000000000000000000000000000000012
:100EE00000000002005241575F53454E530000007E
:100EF0000000000000003200000000000201455820
:100F0000545F5354415400000000000000000034BE
:100F10000000000000020252435F4348414E0000BF
:100F20000000000000000000360000000000020386
:100F30005241575F4354524C000000000000000033
:100F4000003800000000000204504F534954494F3C
:100F50004E0000000000000000003A000000000009
:100F600002054558545241310000000000000000C5
:100F70000000003C000000000002064558545241A9
:100F80003200000000000000000000003E000000F1
:100F90000000020745585452413300000000000091
:100FA0000000000000400000000000020850415214
:100FB000414D53000000000000000000000042000E
:100FC0000000000000FF0000000000000000000022
:100FD000000000000000000000000000006271023C
:100FE00000C201A0B002008403E24B01009001C8DE
:100FF000A30A00D00264B30A003200E7B90A000A6B
:1010000000DC420A008C00DA370A00E803F2AB0A7F
:1010100000200383A821005A0042390200A4018E57
:101020002A0200FA006A4202006400D1B86400A4F7
:1010300001FA7D0A0014002DC902002602EF7B642C
:10104000009600EC7B0200D002BF7C0200B6034D8C
:10105000590A00370062420200C2019D4B0A000497
:1010600001824B0200DC00FC71E803C80017390A5A
:10107000003200504552463A2025752F257520250F
:101080006C750A0050726541726D3A205243206EB1
:101090006F742063616C6962726174656400507280
:1010A0006541726D3A204261726F206E6F742068E4
:1010B00065616C7468790050726541726D3A2043C5
:1010C0006F6D70617373206E6F74206865616C74EE
:1010D00068790050726541726D3A20436F6D70619E
:1010E0007373206E6F742063616C696272617465E2
:1010F000640050726541726D3A20436F6D70617388
:1011000073206F66667365747320746F6F206869EF
:1011100067680050726541726D3A20436865636B81
:10112000206D6167206669656C640050726541726C
:101130006D3A20494E53206E6F742063616C696272
:1011400072617465640050726541726D3A20494E57
:1011500053206E6F74206865616C746879005072FA
:101160006541726D3A20436865636B20426F61721E
:101170006420566F6C746167650050726541726DD2
:101180003A2043683726436838204F7074206361E3
:101190006E6E6F742062652073616D6500507265BC
:1011A00041726D3A20436865636B2046535F544833
:1011B000525F56414C55450050726541726D3A2060
:1011C000436865636B20414E474C455F4D41580075
:1011D00050726541726D3A204143524F5F42414C1B
:1011E0005F524F4C4C2F5049544348005072654158
:1011F000726D3A204261642047505320506F730053
:101200005265616368656420436F6D6D616E642033
:10121000232569008059464D54000042426E4E5AC3
:101220000000000000000000000000547970652CF0
:101230004C656E6774682C4E616D652C466F726DDF
:1012400061740000000000000000000000000000C9
:10125000000000000000000000000000000000008E
:101260000000000000000000000000811750415203
:101270004D004E660000000000000000000000006D
:1012800000004E616D652C56616C756500000000B4
:10129000000000000000000000000000000000004E
:1012A000000000000000000000000000000000003E
:1012B000000000000000000000000000000000002E
:1012C0000000822D475053000042494842634C4C75
:1012D0006565456566490000005374617475732C3B
:1012E00054696D654D532C5765656B2C4E53617475
:1012F000732C48446F702C4C61742C4C6E672C52CC
:10130000656C416C742C416C742C5370642C474395
:1013100072732C565A2C540000831F494D550000FF
:101320004966666666666600000000000000000010
:1013300054696D654D532C477972582C4779725911
:101340002C4779725A2C416363582C416363592CA2
:101350004163635A0000000000000000000000002C
:10136000000000000000000000000000000000007D
:1013700084434D534700005A000000000000000065
:10138000000000000000004D657373616765000098
:10139000000000000000000000000000000000004D
:1013A000000000000000000000000000000000003D
:1013B000000000000000000000000000000000002D
:1013C0000000000000000019194154554E0042422F
:1013D0006666666666000000000000000000417856
:1013E00069732C54756E65537465702C5261746505
:1013F0004D696E2C526174654D61782C5250476175
:10140000696E2C52444761696E2C53504761696E76
:1014100000000000000000000000000000001A09A9
:1014200041544445006366000000000000000000D5
:101430000000000000416E676C652C52617465000D
:10144000000000000000000000000000000000009C
:10145000000000000000000000000000000000008C
:10146000000000000000000000000000000000007C
:101470000000000000091343555252006849686893
:101480006866000000000000000000005468724F11
:1014900075742C546872496E742C566F6C742C439E
:1014A0007572722C5663632C43757272546F74009C
:1014B000000000000000000000000000000000002C
:1014C0000000000000000000000000000B0B4D4F6A
:1014D0005400006868686800000000000000000018
:1014E0000000004D6F74312C4D6F74322C4D6F74B1
:1014F000332C4D6F74340000000000000000000029
:1015000000000000000000000000000000000000DB
:1015100000000000000000000000000000000000CB
:101520000000000C1C4F46000000686842636366C0
:101530006665650000000000000044782C44792CAA
:10154000535175616C2C582C592C4C61742C4C6E79
:10155000672C526F6C6C2C5069746368000000003B
:10156000000000000000000000000000000000007B
:101570000000000000000000000005314E54554EF0
:1015800000456366666666666666666565000000B9
:101590000057504473742C57504272672C50457258
:1015A000582C504572592C4456656C582C4456653D
:1015B0006C592C56656C582C56656C592C444163FB
:1015C000582C444163592C44526F6C2C445069741C
:1015D0000004194354554E00686365666368686883
:1015E0006800000000000000546872496E2C536FC0
:1015F0006E416C742C426172416C742C5750416C7A
:10160000742C446573536F6E416C742C416E674249
:1016100073742C43526174652C5468724F75742C2A
:1016200044435261746500000F154D414700006846
:101630006868686868686868000000000000004D1D
:101640006167582C4D6167592C4D61675A2C4F6664
:1016500073582C4F6673592C4F66735A2C4D4F6636
:1016600073582C4D4F6673592C4D4F66735A0000BA
:101670000000000000000000000000000000000664
:1016800013504D0000004242484849684248420019
:1016900000000000000052656E436E742C52656EAF
:1016A000426C772C4E4C6F6E2C4E4C6F6F702C4DE5
:1016B0006178542C504D542C4932434572722C4958
:1016C0004E534572722C494E4156457272000000CD
:1016D0000000000000000814434D44000042424254
:1016E0004242654C4C000000000000000043546F73
:1016F000742C434E756D2C4349642C434F70742CED
:1017000050726D312C416C742C4C61742C4C6E6792
:1017100000000000000000000000000000000000C9
:101720000000000000000000000000000001114166
:10173000545400006363636363434300000000008C
:1017400000000000526F6C6C496E2C526F6C6C2C58
:101750005069746368496E2C50697463682C5961D0
:1017600077496E2C5961772C4E617659617700006C
:101770000000000000000000000000000000000069
:10178000000000001125494E415600636363666600
:10179000666969666600000000000042416C742CB6
:1017A00049416C742C49436C622C41436F727258EE
:1017B0002C41436F7272592C41436F72725A2C47FD
:1017C0004C61742C474C6E672C494C61742C494C0D
:1017D0006E6700000000000000000003064D4F444B
:1017E00045004D68000000000000000000000000FF
:1017F00000004D6F64652C546872437273000000E2
:1018000000000000000000000000000000000000D8
:1018100000000000000000000000000000000000C8
:1018200000000000000000000000000000000000B8
:1018300000000A035354525400000000000000004E
:101840000000000000000000000000000000000098
:101850000000000000000000000000000000000088
:101860000000000000000000000000000000000078
:101870000000000000000000000000000000000068
:101880000000000000000000000D044556000000AC
:101890004200000000000000000000000000000006
:1018A000496400000000000000000000000000008B
:1018B0000000000000000000000000000000000028
:1018C0000000000000000000000000000000000018
:1018D0000000000000000000000000000000000008
:1018E0001406443136000042680000000000000089
:1018F0000000000000000049642C56616C75650012
:1019000000000000000000000000000000000000D7
:1019100000000000000000000000000000000000C7
:1019200000000000000000000000000000000000B7
:101930000000000000000015064455313600424802
:1019400000000000000000000000000000004964EA
:101950002C56616C7565000000000000000000005E
:101960000000000000000000000000000000000077
:101970000000000000000000000000000000000067
:101980000000000000000000000000000000160839
:1019900044333200004269000000000000000000F3
:1019A000000000000049642C56616C756500000061
:1019B0000000000000000000000000000000000027
:1019C0000000000000000000000000000000000017
:1019D0000000000000000000000000000000000007
:1019E000000000000017084455333200424900004F
:1019F00000000000000000000000000049642C56B8
:101A0000616C75650000000000000000000000002F
:101A100000000000000000000000000000000000C6
:101A200000000000000000000000000000000000B6
:101A300000000000000000000000000018084446FC
:101A40004C5400426600000000000000000000004E
:101A500000000049642C56616C75650000000000B0
:101A60000000000000000000000000000000000076
:101A70000000000000000000000000000000000066
:101A80000000000000000000000000000000000056
:101A90000000000E1C5049440000426969696969F0
:101AA0006600000000000000000049642C457272CE
:101AB0006F722C502C492C442C4F75742C47616943
:101AC0006E000000000000000000000000000000A8
:101AD0000000000000000000000000000000000006
:101AE00000000000000000000000121B43414D00F8
:101AF0000049484C4C65636343000000000000004F
:101B00000047505354696D652C4750535765656BBA
:101B10002C4C61742C4C6E672C416C742C526F6C85
:101B20006C2C50697463682C5961770000000000C8
:101B300000000000000000000000000000000000A5
:101B40000013054552520000424200000000000010
:101B500000000000000000005375627379732C458B
:101B6000436F6465000000000000000000000000FA
:101B70000000000000000000000000000000000065
:101B80000000000000000000000000000000000055
:101B9000000000000000000041726475436F707423
:101BA00065722056332E312D7263370047524F55E0
:101BB0004E4420535441525400494E530A002D00C4
:101BC000475F6F66663A2025342E32662C20253416
:101BD0002E32662C2025342E32660A00415F6F6655
:101BE000663A2025342E32662C2025342E32662C7F
:101BF0002025342E32660A415F7363616C653A209A
:101C000025342E32662C2025342E32662C202534A5
:101C10002E32660A0043616C6962726174696E6794
:101C2000206261726F6D65746572006261726F6DC2
:101C3000657465722063616C6962726174696F6E4C
:101C400020636F6D706C6574650041726D3A20544D
:101C500068722062656C6F772046530041726D3A5E
:101C60002053616665747920537769746368004C0A
:101C70006F77204261747465727921004C6F7374C0
:101C80002047505321000A0A496E6974204172644A
:101C900075436F707465722056332E312D72633721
:101CA0000A0A467265652052414D3A2025750A00A0
:101CB0004E6F2064617461666C61736820696E7335
:101CC00065727465640045524153494E47204C4F3C
:101CD0004753000A507265737320454E5445522095
:101CE000332074696D657320746F2073746172742E
:101CF00020696E74657261637469766520736574BA
:101D000075700A000A526561647920746F20464C30
:101D1000592000496E697469616C6973696E672046
:101D200041504D2E2E2E004657205665723A2025E2
:101D3000640A004669726D77617265206368616E3E
:101D400067653A2065726173696E67204545505238
:101D50004F4D2E2E2E0A00646F6E652E008D0001F1
:101D600000424154545F4D4F4E49544F52000000C1
:101D70000000A8000100424154545F564F4C545F8C
:101D800050494E00000000A9000100424154545F38
:101D9000435552525F50494E000000008E0004002F
:101DA000424154545F564F4C545F4D554C540000C3
:101DB000008F000400424154545F414D505F504534
:101DC00052564F4C540091000300424154545F431B
:101DD00041504143495459000000006C6F61645FF9
:101DE000616C6C20746F6F6B20256C7575730A00C5
:101DF00045726173696E67206C6F67730A004C6F80
:101E00006720657261736520636F6D706C657465C2
:101E10000A00456E746572696E672045534320431E
:101E2000616C6962726174696F6E3A20706C656191
:101E3000736520726573746172742041504D2E0A6F
:101E4000004553432043616C6962726174696F6E2F
:101E5000206163746976653A2070617373696E6797
:101E6000207468726F74746C65207468726F756723
:101E70006820746F20455343732E0A00434F4D5022
:101E800041535320494E4954204552524F52000A63
:101E90004661696C656420746F20496E6974204FD7
:101EA0007074466C6F7720004175746F54756E6561
:101EB0003A2053756363657373004175746F54758D
:101EC0006E653A204661696C6564004175746F54B3
:101ED000756E653A205374617274656400636F6D4A
:101EE0006D616E642072656365697665643A200091
:101EF00041726475436F707465722056332E312DB4
:101F000072633700556E6B6E6F776E207061726111
:101F10006D6574657220696E64657820256400556E
:101F20006E6B6E6F776E20706172616D6574657235
:101F300020252E31367300666C6967687420706CDA
:101F4000616E207570646174652072656A65637482
:101F5000656400666C6967687420706C616E2072DD
:101F6000656365697665640043726173683A20440D
:101F7000697361726D696E67004F7074466C6F773C
:101F80000A00656E006469730061626C65640A0032
:101F90004C6F670064756D70000000000000000069
:101FA000000099396572617365000000000000004F
:101FB0000000F27D656E61626C650000000000004B
:101FC00000006E5064697361626C6500000000007F
:101FD00000006E50736574757000616363656C001A
:101FE0000000000000000000915D636F6D70617380
:101FF0007300000000000000D75A636F6D706173BA
:10200000736D6F74000000004A9F65726173650014
:102010000000000000000000CC2D6672616D6500BC
:102020000000000000000000764E6D6F64657300D4
:102030000000000000000000AE9D6F7074666C6FC1
:102040007700000000000000F578726164696F009D
:1020500000000000000000005F9B72616E67650079
:102060000000000000000000D84F72657365740026
:102070000000000000000000D343736574000000FE
:1020800000000000000000003D5173686F77000001
:1020900000000000000000003279736F6E61720072
:1020A0000000000000000000534F41726475436F50
:1020B000707465722056332E312D726337006C6F49
:1020C000677300000000000000000000B93873656D
:1020D000747570000000000000000000BF387465D7
:1020E000737400000000000000000000B338726547
:1020F000626F6F7400000000000000004D2E6865E4
:102100006C7000000000000000000000362E7465B6
:102110007374006261726F00000000000000000034
:1021200000637D636F6D70617373000000000000D9
:1021300000185C67707300000000000000000000E1
:10214000009233696E730000000000000000000080
:1021500000365B6C6F6767696E6700000000000007
:10216000007B336D6F746F7273000000000000001D
:10217000000A9B6F7074666C6F77000000000000AF
:1021800000504570776D0000000000000000000066
:1021900000ED99726164696F0000000000000000AA
:1021A00000849972656C61790000000000000000F5
:1021B00000E42F736F6E61720000000000000000E9
:1021C00000EA446C6F677320656E61626C65643A07
:1021D00020006E6F6E6500204154544954554445AB
:1021E0005F46415354002041545449545544455F7F
:1021F0004D454400204750530020504D002043548B
:10220000554E00204E54554E0020494D5500204358
:102210004D44002043555252454E5400204D4F54DA
:102220004F525300204F5054464C4F5700205049B6
:10223000440020434F4D504153530020494E4156D6
:10224000002043414D45524100536F6E617220643E
:10225000697361626C65640A00536F6E61723A2043
:10226000256420636D0A0048697420456E746572A8
:1022700020746F20657869742E0A0A0052656C61BB
:1022800079206F6E0A0052656C6179206F66660A6C
:1022900000494E2020313A20256409323A20256435
:1022A00009333A20256409343A20256409353A2057
:1022B000256409363A20256409373A2025640A0046
:1022C000494E3A20313A20256409323A20256409E2
:1022D000333A20256409343A20256409353A20250B
:1022E0006409363A20256409373A20256409383ACA
:1022F0002025640A004F7074466C6F773A20006D99
:10230000616E2069643A2025640900782F64783A68
:102310002025642F25640920792F64792025642FD6
:1023200025640920737175616C3A25640A00436F56
:102330006E6E656374206261747465727920666F75
:1023400072207468697320746573742E0A4D6F74FB
:102350006F72732077696C6C207370696E2062797C
:10236000206672616D6520706F736974696F6E208D
:102370006F726465722E0A46726F6E742028262072
:102380007269676874206F662063656E7465726C2D
:10239000696E6529206D6F746F722066697273743F
:1023A0002C207468656E20696E20636C6F636B7798
:1023B000697365206F726465722061726F756E64F7
:1023C000206672616D652E0A52656D656D6265727B
:1023D00020746F20646973636F6E6E65637420622E
:1023E00061747465727920616674657220746869BD
:1023F0007320746573742E0A416E79206B657920A1
:10240000746F20657869742E0A0054657374696E60
:10241000672064617461666C617368206C6F6767C4
:10242000696E6700494E530A002E2E2E646F6E654A
:102430000A00612025372E34662025372E34662089
:1024400025372E346620672025372E346620253721
:102450002E34662025372E346620742025372E34FE
:1024600066200A004C61743A20002C204C6F6E20CC
:10247000002C20416C743A20256C646D2C20237351
:102480006174733A2025640A002E00436F6D7061F9
:1024900073733A2000436F6D7061737320696E69C6
:1024A0007469616C69736174696F6E206661696CCF
:1024B0006564210048656164696E673A20256C6433
:1024C0002C2058595A3A2025642C2025642C20258C
:1024D000642C0958595A6F66663A2025362E3266A2
:1024E0002C2025362E32662C2025362E32660A0008
:1024F000636F6D70617373206E6F74206865616CBB
:1025000074687900736176696E67206F66667365BB
:10251000747300436F6D706173730A004D616720BF
:102520004465633A2025342E34660A004D616720E5
:102530006F66663A2025342E34662C2025342E34DE
:10254000662C2025342E34660A004D6F746F72207D
:10255000436F6D703A20004F66660A005468726FD0
:1025600074746C650043757272656E74000A436F13
:102570006D70205665633A2025342E32662C202556
:10258000342E32662C2025342E32660A006E6F748B
:10259000206865616C74687900416C743A2025305C
:1025A0002E32666D2C205261773A202566205465C4
:1025B0006D70657261747572653A20252E31660AF8
:1025C00000436F6D6D616E64733A0A20206C6F6713
:1025D000730A202073657475700A20207465737403
:1025E0000A20207265626F6F740A0A006F6E006FB6
:1025F0006666000A4F703A5B6F6E2C206F66662C21
:1026000020302D335D0A00536F6E61720A005479D9
:1026100070653A2025642028303D584C2C20313DEF
:102620004C562C20323D584C4C2C20333D48524CBB
:10263000562900506172616D65746572206E6F7409
:1026400020666F756E643A20272573270A00526151
:1026500064696F0A004348313A202564207C2025B4
:10266000640A004348323A202564207C2025640A0D
:10267000004348333A202564207C2025640A004327
:1026800048343A202564207C2025640A00434835DC
:102690003A202564207C2025640A004348363A20ED
:1026A0002564207C2025640A004348373A202564AD
:1026B000207C2025640A004348383A202564207C89
:1026C0002025640A004672616D650A0051756164D7
:1026D000206672616D650A0058206D6F64650A009E
:1026E0002B206D6F64650A0056206D6F64650A00CB
:1026F0000A42617474204D6F6E3A0A00766F6C74F2
:102700007300766F6C747320616E64206375720061
:10271000466C69676874206D6F6465730A00506F5A
:10272000732025643A09002C090953696D706C65A2
:102730003A20004F46460A0053544142494C495AF8
:1027400045004143524F00414C545F484F4C4400B8
:102750004155544F00475549444544004C4F495456
:1027600045520052544C00434952434C4500504F8F
:10277000534954494F4E004C414E44004F465F4C24
:102780004F495445520044524946540053504F5209
:1027900054004D6F646528257529004F4E0A004985
:1027A0006E76616C696420636F6D6D616E642E205E
:1027B00055736167653A20736574203C6E616D6581
:1027C0003E203C76616C75653E0A00506172616D19
:1027D000206E6F7420666F756E643A2025730A0050
:1027E00056616C7565206F7574206F662072616E1E
:1027F000676520666F72207479706520494E543881
:102800000A0056616C7565206F7574206F662072C2
:10281000616E676520666F72207479706520494E1D
:102820005431360A0043616E6E6F742073657420F4
:10283000706172616D65746572206F662074797065
:10284000652025642E0A000A275927203D2066614D
:1028500063746F72792072657365742C20616E7970
:10286000206F74686572206B657920746F206162D7
:102870006F72743A0A000A5265626F6F7420415099
:102880004D000A434820362052616E67657320610F
:1028900072652064697669646564206279203130EC
:1028A00030303A205B6C6F772C20686967685D0A6E
:1028B000000A54554E453A0A002025642C204C6FDE
:1028C000773A25312E34662C20486967683A2531DD
:1028D0002E34660A000A0A526164696F20536574D7
:1028E00075703A000A4D6F766520616C6C20636FDD
:1028F0006E74726F6C7320746F2065787472656D7E
:1029000065732E20456E74657220746F2073617636
:10291000653A20000A53617665640A006F6E006FA5
:102920006666000A4F703A5B6F6E2C206F66665DBC
:102930000A000A4D6F6465207377697463682074B8
:102940006F20656469742C2061696C65726F6E3AE2
:102950002073656C656374206D6F6465732C2072E1
:1029600075646465723A2053696D706C65206F6E92
:102970002F6F66660A00780070002B0076000A4F01
:10298000703A5B782C2B2C765D0A000A45726173D5
:10299000696E6720454550524F4D0A00646F6E6561
:1029A0000A00726164696F206E6F742063616C69E4
:1029B0006272617465640A00636F6D706173732085
:1029C00064697361626C65640A005468697320729B
:1029D00065636F7264732074686520696D706163EC
:1029E00074206F6E2074686520636F6D70617373FF
:1029F000206F662072756E6E696E67207468652040
:102A00006D6F746F72732E20204D6F746F72732010
:102A100077696C6C207370696E210A486F6C642052
:102A20007468726F74746C65206C6F772C20746896
:102A3000656E20726169736520746F206D69642012
:102A4000666F722035207365632C207468656E2074
:102A5000717569636B6C79206261636B20746F20A0
:102A60006C6F772E0A507265737320616E79206BDC
:102A7000657920746F20657869742E0A0A6D656126
:102A8000737572696E6720636F6D70617373207602
:102A900073200043555252454E540A005448524F39
:102AA00054544C450A007468726F74746C65206EDF
:102AB0006F74207A65726F0A00636865636B2063C8
:102AC0006F6D706173730A000A496E746572666592
:102AD00072656E63652061742066756C6C20746825
:102AE000726F74746C652069732025642525206FCE
:102AF00066206D6167206669656C640A0A0046613C
:102B0000696C65642120436F6D70656E73617469D3
:102B10006F6E2064697361626C65642E2020446965
:102B20006420796F7520666F7267657420746F20FA
:102B3000726169736520746865207468726F74745B
:102B40006C65206869676820656E6F7567683F000F
:102B50007468723A2564206375723A25342E3266A1
:102B6000206D6F7420783A25342E316620793A250D
:102B7000342E3166207A3A25342E31662020636F58
:102B80006D7020783A25342E326620793A25342E1D
:102B90003266207A3A25342E32660A006F6E006F54
:102BA0006666000A4F703A5B6F6E2C6F66665D0A50
:102BB00000496E697469616C6973696E6720677931
:102BC000726F73005365747570204D6F64650A0AE7
:102BD0000A000A215761726E696E672C2072616467
:102BE000696F206E6F7420636F6E666967757265BA
:102BF0006421000A20547970652027726164696F2E
:102C000027206E6F772E0A0A006D697373696E67ED
:102C1000206C6F6720747970650A00616C6C0041EC
:102C2000545449545544455F46415354004154540B
:102C300049545544455F4D45440047505300504D5D
:102C4000004354554E004E54554E004D4F444500E0
:102C5000494D5500434D440043555252454E540092
:102C60004D4F544F5253004F5054464C4F57005005
:102C7000494400434F4D5041535300494E41560083
:102C800043414D45524100656E61626C650064755B
:102C90006D70696E6720616C6C0A00626164206C03
:102CA0006F67206E756D6265720A000A4172647505
:102CB000436F707465722056332E312D7263370A5C
:102CC000467265652052414D3A2025750A004150F3
:102CD0004D20320025535D200068656C70006578DA
:102CE000697400496E76616C696420636F6D6D6113
:102CF0006E642C2074797065202768656C702700DD
:102D0000436F6D6D616E64733A00202025530A0095
:102D1000454550524F4D2066756C6C0025733A2026
:102D200025640A0025733A2025640A0025733A2099
:102D3000256C640A0025733A2025660A00556E6BDF
:102D40006E6F776E20636F6E76657273696F6E203B
:102D5000272553270A0042616420636F6E766572EF
:102D600073696F6E207479706520272553270A00D8
:102D7000DCDFE1E3E6E8EBEDEFF2F4F7F9FCFE006F
:102D80000305080A0C0F111416181B1D20222427F6
:102D90002C76D888674F0823C1DFAE59B1B796E5C6
:102DA000E453C63A51997696E6C28426898C9B6292
:102DB000407C6FFCBC9C9F40BAA56FA590055A2A29
:102DC0005C936B6C676DC11BE0E40D47F520E6B5C5
:102DD000D0ED902E009435770080841E0000204EA8
:102DE000000000C833333333986E128341EF8D21D6
:102DF000893BE655CFFEE6DBD1844B38F77C1D904E
:102E0000A4BBE4243284725E8100C9F1ECA1E53DEB
:102E10006E616E00696E66004572726F723A204193
:102E2000505F48414C5F4156523A3A415652416ECA
:102E3000616C6F67496E206F7574206F66206368E0
:102E4000616E6E656C730D0A0050414E49433A2025
:102E50007363686564756C65723A3A737973746507
:102E60006D5F696E697469616C697A65642063611C
:102E70006C6C65646D6F7265207468616E206F6E36
:102E8000636500474F494E4720444F574E20464FF9
:102E9000522041205245424F4F540D0A0050414E9E
:102EA00049433A2041565253656D6170686F7265AF
:102EB0003A3A74616B6520757365642066726F6D54
:102EC00020696E736964652074696D657220707223
:102ED0006F636573730050414E49433A2053504924
:102EE00030207472616E7366657220636F6C6C69FA
:102EF00073696F6E0050414E49433A205350493038
:102F000020777269746520636F6C6C6973696F6E8A
:102F100000010210202008081020401020408002EC
:102F2000010201080402010102040810204080800F
:102F30004020100804020180040201804020100893
:102F4000040201080402010102040810204080016B
:102F50000204081020408040050505050705080803
:102F60000808020202020A0A080804040404010113
:102F70000101010101010303030303030303040728
:102F800007070C0C0C0C0C0C0C0C020202020606BF
:102F90000606060606060B0B0B0B0B0B0B0B0500B0
:102FA0000020002300260029002C002F0032000002
:102FB000010000030106010901000022002500288C
:102FC000002B002E00310034000201000005010832
:102FD000010B0100002100240027002A002D0030F1
:102FE00000330001010000040107010A01327C895D
:102FF00000EDD968770000005900000000000000D3
:1030000000D69FDCA81817AA90437327F6B968ED7D
:10301000F4DED409FEE61C1C84DDE80B992927D6D2
:10302000DF8D210F036418EFEE1EF0B7828200944B
:103030001500F37C0000001400988F00007F6A00E8
:10304000000000000000E7B73F360000000000006D
:1030500000AF669ED0385DD36C20B9EB5D7C7C7789
:10306000040000000000000000000000000000005C
:103070000000000000000000000000000000000050
:103080002AF10F86DBD0BC5416131586004E44BDC2
:103090007F9A15159001EA49B51653A78AEA0000F0
:1030A0000000000000000000000000000000000020
:1030B0000000000000000000000000000000000010
:1030C0000000000000000000000000000000000000
:1030D00000000000000000000000000000000000F0
:1030E000000000000000CC31AA2C532E00245053C5
:1030F00052463130302C302C33383430302C382C90
:10310000312C302A334300245047434D442C313670
:103110002C302C302C302C302C302A36410D0A002B
:103120000096000000E1000080250000C0120000B1
:103130004F4B002075626C6F782000204D544B314E
:10314000392000204D544B20002053495246200086
:10315000204E4D454120000100454E41424C450066
:103160000000000000000000000003000000803F9D
:103170000401524144495553000000000000000082
:1031800000000004000000FA430402414343454CA0
:103190000000000000000000000000000800000027
:1031A0007A4400FF00000000000000000000000062
:1031B0000000000000000000000000475056544787
:1031C000004750474741004750524D430024505557
:1031D00042582C34302C6767612C302C312C302C29
:1031E000302C302C302A37420D0A24505542582CAE
:1031F00034302C7674672C302C312C302C302C3021
:103200002C302A37460D0A24505542582C34302C85
:10321000726D632C302C302C302C302C302C302A1A
:1032200036370D0A0024504D544B3331342C302C9A
:10323000302C312C312C302C302C302C302C302CAC
:10324000302C302C302C302C302C302C302C302AA0
:1032500032380D0A24504D544B3333302C302A323F
:10326000450D0A24504D544B3331332C312A32450D
:103270000D0A24504D544B3330312C322A32450D37
:103280000A0024505352463130332C302C302C312C
:103290002C312A32350D0A24505352463130332C0A
:1032A000312C302C302C312A32350D0A2450535217
:1032B000463130332C322C302C302C312A32360D22
:1032C0000A24505352463130332C332C302C302CBE
:1032D000312A32370D0A24505352463130332C34C0
:1032E0002C302C312C312A32300D0A2450535246C6
:1032F0003130332C352C302C312C312A32300D0A20
:1033000024505352463130332C362C302C302C3153
:103310002A32320D0A24505352463130332C382C85
:10332000302C302C312A32430D0A2450535246316E
:1033300035312C312A33460D0A2450535246313050
:10334000362C32312A30460D0A00A0A20008A6020F
:1033500000000000000000A8B0B3A0A20008A60072
:1033600029010000000000D0B0B3B56206010300DF
:10337000010601124F24505542582C34312C312C67
:10338000303030332C303030312C33383430302C36
:10339000302A32360D0A0050414E49433A204461EA
:1033A0007461466C61736820535049446576696363
:1033B00065447269766572206E6F7420666F756EF3
:1033C000640050414E49433A2044617461466C6147
:1033D0007368205350494465766963654472697621
:1033E00065722073656D6170686F72652069732006
:1033F0006E756C6C00554E4B4E2C2025750A0025C1
:10340000532C2000256400257500256400257500D7
:10341000256C6400256C7500256600252E3266003B
:10342000252E326600252E326600252E32660025B6
:1034300073002573002573002C2000464D542C206A
:1034400025752C2025752C2025532C2025532C2028
:1034500025530A00444620706167652C206C6F6715
:103460002066696C6520232C206C6F672070616773
:10347000653A2025752C090025752C090025750A4B
:10348000004E6F2064617461666C61736820696EC0
:10349000736572746564004D616E75666163747501
:1034A0007265723A203078253032782020204465C9
:1034B000766963653A203078253034780A004E7595
:1034C0006D50616765733A202575202050616765EE
:1034D00053697A653A2025750A000A4E6F206C6F91
:1034E00067730A0A000A2575206C6F67730A004C1F
:1034F0006F672025752C2020202073746172742042
:1035000025752C202020656E642025750A00040294
:103510004142535F505245535300000000000000E9
:10352000000C0000000000040354454D5000000052
:103530000000000000000000000008000000000083
:103540000104414C545F4F4646534554000000006F
:1035500000000010000000000000FF00000000005C
:10356000000000000000000000000000000000005B
:10357000000050414E49433A2041505F4261726F12
:103580003A3A7265616420756E737563636573732F
:1035900066756C20666F72206D6F7265207468614D
:1035A0006E203530306D7320696E2041505F42616E
:1035B000726F3A3A63616C696272617465205B3163
:1035C0005D0D0A0050414E49433A2041505F42612F
:1035D000726F3A3A7265616420756E7375636365E4
:1035E000737366756C20666F72206D6F72652074E0
:1035F00068616E203530306D7320696E2041505FF8
:103600004261726F3A3A63616C69627261746520FB
:103610005B325D0D0A0050414E49433A2041505FF4
:103620004261726F3A3A7265616420756E737563B8
:103630006365737366756C20666F72206D6F72655B
:10364000207468616E203530306D7320696E2041C2
:10365000505F4261726F3A3A63616C696272617481
:1036600065205B335D0D0A0050414E49433A2041CD
:10367000505F4261726F5F4D53353631312064695E
:1036800064206E6F74206765742076616C696420B5
:103690005350492064657669636520647269766574
:1036A00072210050414E49433A2041505F426172BD
:1036B0006F5F4D533536313120646964206E6F740D
:1036C000206765742076616C6964205350492073CB
:1036D000656D617068726F65210050414E49433AD3
:1036E000206661696C656420746F2074616B65206D
:1036F0005F7370695F73656D203130302074696D60
:10370000657320696E206120726F772C20696E20AE
:1037100041505F4261726F5F4D53353631313A3AF5
:103720005F7570646174650050414E49433A2041B1
:10373000505F4261726F5F4D53353631312064699D
:1037400064206E6F74206765742076616C696420F4
:103750004932432073656D617068726F6521005056
:10376000414E49433A206661696C656420746F205C
:1037700074616B65205F6932635F73656D20313002
:10378000302074696D657320696E206120726F77D7
:103790002C20696E2041505F4261726F5F4D53353E
:1037A0003631313A3A5F7570646174650050414E4C
:1037B00049433A2041505F4261726F5F4D53353645
:1037C00031313A204E554C4C2073657269616C2042
:1037D0006472697665720050414E49433A20415007
:1037E0005F4261726F5F4D53353631313A20666109
:1037F000696C656420746F2074616B6520736572F9
:1038000069616C2073656D6170686F726520666FA9
:103810007220696E69740050414E49433A2041500C
:103820005F4261726F5F4D533536313120746F6F77
:103830006B206D6F7265207468616E20313030309E
:103840006D7320746F20696E697469616C697A6543
:10385000004661696C656420746F20676574204858
:103860004D43353834332073656D6170686F726510
:103870000005014F4653000000000000000000005A
:103880000000000011000000000004024445430055
:10389000000000000000000000000000001D00000B
:1038A00000000001034C4541524E000000000000A2
:1038B0000000000000000F000000803F010455538D
:1038C0004500000000000000000000000000002192
:1038D000000000803F01054155544F44454300001E
:1038E000000000000000000022000000803F0106F0
:1038F0004D4F544354000000000000000000000041
:10390000009E000000000005074D4F54000000001D
:10391000000000000000000000009F000000000008
:1039200001084F5249454E540000000000000000BD
:1039300000000010000000000001094558544552E5
:103940004E414C0000000000000000002300000079
:10395000000000FF00000000000000000000000068
:1039600000000000000000000000002D00256C6435
:103970002E2530376C640043757276653A00783ACC
:103980000009793A0009736C6F70653A00437572EB
:1039900076653A00783A0009793A0009736C6F70DD
:1039A000653A0043757276653A00783A0009793ACB
:1039B0000009736C6F70653A0043757276653A0062
:1039C000783A0009793A0009736C6F70653A0043E0
:1039D000757276653A00783A0009793A0009736C95
:1039E0006F70653A0043757276653A00783A00095F
:1039F000793A0009736C6F70653A00020050524FBB
:103A0000445543545F494400000000000000260074
:103A10000000000005014143435343414C000000B6
:103A20000000000000000028000000000005024126
:103A300043434F46465300000000000000000000D2
:103A400034000000000005034759524F464653001A
:103A50000000000000000000004000000000000125
:103A6000044D5055364B5F46494C544552000000BA
:103A700000004C000000000000FF000000000000FB
:103A80000000000000000000000000000000000036
:103A900000496E6974204779726F002A000A6779BD
:103AA000726F20646964206E6F7420636F6E766538
:103AB0007267653A20646966663D256620647073A6
:103AC0000A00496E697420416363656C002A002016
:103AD000006F6E20697473204241434B00506C614B
:103AE00063652041504D20255320616E6420707223
:103AF00065737320616E79206B65792E0A004661CB
:103B0000696C656420746F2067657420494E53208A
:103B100073616D706C650A004F6666736574733A05
:103B200020252E326620252E326620252E32660A6A
:103B3000005363616C696E673A20252E326620253A
:103B40002E326620252E32660A0043616C6962724D
:103B50006174696F6E207375636365737366756CEA
:103B60000A0043616C6962726174696F6E2046413C
:103B7000494C45440A006C6576656C006F6E20699F
:103B80007473204C4546542073696465006F6E2041
:103B90006974732052494748542073696465006E04
:103BA0006F736520444F574E006E6F7365205550FC
:103BB000004D5055363030303A20556E61626C659C
:103BC00020746F206765742073656D6170686F7213
:103BD00065004D5055363030302073746172747505
:103BE00070206661696C65643A206E6F2064617450
:103BF000612072656164790050414E49433A206604
:103C000061696C656420746F20626F6F74204D5021
:103C1000553630303020352074696D657300504161
:103C20004E49433A2041505F496E65727469616C38
:103C300053656E736F725F4D5055363030303A3A7F
:103C40005F706F6C6C5F64617461206661696C6544
:103C50006420746F2074616B652053504920736534
:103C60006D6170686F72652073796E6368726F6ED4
:103C70006F75736C79004D5055363030303A2055A1
:103C80006E61626C6520746F206765742073656D6A
:103C90006170686F7265004661696C656420746F5D
:103CA00020626F6F74204D505536303030203520F3
:103CB00074696D65730054696D6564206F75742057
:103CC00077616974696E6720666F722075736572BB
:103CD00020726573706F6E73650004024750535F06
:103CE0004741494E00000000000000000024000091
:103CF00000803F01034750535F55534500000000CB
:103D00000000000000002C000000803F0404594126
:103D1000575F500000000000000000000000001C81
:103D200000CDCC4C3E040552505F50000000000016
:103D300000000000000000002000CDCC4C3E010639
:103D400057494E445F4D41580000000000000000FC
:103D5000002D000000000005085452494D000000ED
:103D6000000000000000000000003E000000000015
:103D700001094F5249454E544154494F4E000000ED
:103D80000000002E0000000000040A434F4D505F69
:103D90004245544100000000000000002800CDCC46
:103DA000CC3D010B4750535F4D494E534154530096
:103DB00000000000002F000000C040010C475053DD
:103DC0005F44454C415900000000000000003000F5
:103DD0000000004000FF00000000000000000000A4
:103DE000000000000000000000000000000400507F
:103DF00000000000000000000000000000000000C3
:103E00000000000000000401490000000000000064
:103E1000000000000000000000040000000000029C
:103E200002494D4158000000000000000000000061
:103E3000000008000000000000FF0000000000007B
:103E40000000000000000000000000000000000072
:103E5000000400500000000000000000000000000E
:103E60000000000000000000000004014900000004
:103E7000000000000000000000000000000400003E
:103E800000000004024400000000000000000000E8
:103E90000000000000000800000000000203494D7F
:103EA0004158000000000000000000000000000C6D
:103EB000000000000000FF00000000000000000003
:103EC00000000000000000000000000000000200F0
:103ED0004D494E00000000000000000000000000FE
:103EE000000A000080894402015452494D0000003C
:103EF000000000000000000000000C000080BB4437
:103F000002024D41580000000000000000000000C7
:103F10000000000E000080ED4401035245560000F1
:103F20000000000000000000000000001000000081
:103F3000803F0205445A000000000000000000001D
:103F4000000000000011000000000000FF00000061
:103F50000000000000000000000000000000000061
:103F60000000000008000000000000000000000049
:103F7000000000000000000000CE3E0000010146ED
:103F8000554E4354494F4E00000000000000000011
:103F90001D000000000000FF000000000000000005
:103FA0000000000000000000000000000000000110
:103FB00001544352565F454E41424C4500000000BB
:103FC000000040000000803F0102544352565F4D04
:103FD00049445043540000000000004100000050DC
:103FE000420103544352565F4D4158504354000020
:103FF0000000000042000000BA4202055350494E42
:104000005F41524D454400000000000000430000A5
:10401000008C4200FF0000000000000000000000D3
:1040200000000000000000000000000041505F4D53
:104030006F746F72733A206661696C656420746F87
:1040400020637265617465207468726F74746C6546
:1040500020637572766500010050494E0000000033
:1040600000000000000000000000000000005041BF
:1040700000FF000000000000000000000000000041
:1040800000000000000000000001005452494747B2
:104090005F5459504500000000000000000000007F
:1040A000000001014455524154494F4E00000000A8
:1040B00000000000000100000020410202534552B0
:1040C000564F5F4F4E00000000000000000002004D
:1040D0000080A2440203534552564F5F4F464600AC
:1040E0000000000000000004000080894404045423
:1040F000524947475F444953540000000000000004
:1041000009000000000000FF0000000000000000A7
:10411000000000000000000000000000000000019E
:10412000004D4F444500000000000000000000006A
:104130000000360000000000050152455452414382
:1041400054000000000000000000004700000000D4
:104150000005024E45555452414C0000000000003D
:10416000000000005300000000000503434F4E54C0
:10417000524F4C000000000000000000005F0000F3
:104180000000000104535441425F524F4C4C000068
:10419000000000000000330000000000010553543F
:1041A00041425F54494C54000000000000000034BC
:1041B00000000000000106535441425F50414E0090
:1041C00000000000000000003500000000000107B2
:1041D00052435F494E5F524F4C4C000000000000BC
:1041E000003700000000000208414E474D494E5F75
:1041F000524F4C000000000000003A0000A08CC5A7
:104200000209414E474D41585F524F4C000000009B
:104210000000003C0000A08C45010A52435F494E5B
:104220005F54494C540000000000000038000000BA
:104230000000020B414E474D494E5F54494C00006F
:1042400000000000003E0000A08CC5020C414E475B
:104250004D41585F54494C000000000000004000F0
:1042600000A08C45010D52435F494E5F50414E0006
:1042700000000000000000390000000000020E41B4
:104280004E474D494E5F50414E0000000000000077
:10429000420000A08CC5020F414E474D41585F506F
:1042A000414E00000000000000440000A08C4501C9
:1042B000104A535449434B5F5350440000000000E0
:1042C000000046000000000000FF000000000000A9
:1042D00000000000000000000000000000000000DE
:1042E00000040154435F5859000000000000000022
:1042F00000000000140000002040040254435F5AF4
:104300000000000000000000000000000065000048
:1043100000A04000FF0000000000000000000000BE
:1043200000000000000000000000000004005350E6
:10433000454544000000000000000000000000119E
:10434000000000FA43040152414449555300000063
:1043500000000000000000001D00000048430402AF
:1043600053504545445F55500000000000000000D8
:1043700000150000007A43040353504545445F4450
:104380004E0000000000000000001900000016436D
:1043900004044C4F49545F5350454544000000000D
:1043A0000000000D000000FA430405414343454C62
:1043B00000000000000000000000000021000000DC
:1043C000C84200FF000000000000000000000000E4
:1043D000000000000000000000000096918C878221
:1043E0007D78736E69645F5A55504B46413C373255
:1043F0002D28231E19140F0A050004090E13181D79
:1044000022272C31363B40454A4F54595E63686D34
:1044100072777C81868B90959A9FA4A9AEB3AFAA40
:10442000A5A09B968F89837E78736E69645F5A55C9
:10443000504B47423E3935302C27231F1B16120E96
:1044400009050103070B1014191D22262B2F3439DF
:104450003D42474C51565B60656B70757B80868C26
:1044600092979DA3A9AFB2ACA6A09A948F827C76B6
:10447000706B65605C57524E4A46413D3936322E6C
:104480002A26221F1B1713100C08040102060A0E0D
:1044900012161A1E22262B2F33383D41464B4F54FD
:1044A000595E64696F747A80878D949BA2AAB1AEBD
:1044B000A69F979089826F68635E5955514D494612
:1044C000423F3C3835322E2B2824211E1A17141057
:1044D0000D0A0603000306090D1014181C202428D9
:1044E0002C3034393D41464A4F54585D62676D73F4
:1044F0007980878F98A2ACB0A59A90867D766F550B
:10450000514D4A4744413F3C3A383533312E2B29EF
:104510002623201D1A1713100D0A07040101030694
:10452000090D1013171A1E22262A2E32363A3E4241
:10453000464A4E53575B5F64696E757C85909FB2A7
:10454000A08D7D7067605A553E3C3A39373634331A
:1045500032302F2E2C2A292724221F1C1916131023
:104560000D0A070402000305080A0D1013161A1D90
:104570002125292D3135383C4043464A4D5053566C
:10458000595B5E6165696F826D544D4A4744424094
:104590003E2E2E2D2C2C2B2A2A292928272625246D
:1045A00023211F1C1A1714100D0A0704010103050B
:1045B00007090C0E1013161A1D2124282C3033372E
:1045C0003A3D40424447484A4A4B4A48443D3019E4
:1045D000021621282B2D2E2F2E2E06090C0F121518
:1045E00017191B1C1B1811040E2231383C3C3C3A95
:1045F0003835322F2B2824201C1915110D090501DF
:1046000002060A0E1115181C1F222527292A2B2BFA
:104610002926211911080004080A0A0A08070402B9
:1046200000030616181A1C1E20211F171251606362
:10463000625F5D5956524E4A46423E3935312C280A
:1046400024201B17130E0A060102060A0F13171B5C
:104650001F23262A2D313437393C3D3F3F3E3D391B
:10466000352F28211C17151313131416A8ADB2B03B
:10467000ABA6A19C97928D88837E79746F6A6560E2
:104680005B56514C47423D38332E29241F1A1510D2
:104690000B060103080D12171C21262B30353A3F5B
:1046A00044494E53585D62676C71767B80858A8F72
:1046B00094999EA3A800000001FFFFE00000000005
:1046C000000001FFFFF000000000000001FFFFF804
:1046D00000000000000001FFFFFE000000000000DD
:1046E00003FFFFFF00000000000003FFFFFFF000DA
:1046F000000000000FFFFFFFFE00000003FFFFFCB3
:10470000000007FC00007FFFFFFC0000000000002D
:10471000001FFFFE0000000000241E191512100EDD
:104720000C0B0A0909090808080706060504040411
:10473000030404040000000000000000000027261D
:104740002123252325242722292A2A1C27282B3305
:10475000322725222C3331303700000000000000C2
:104760000000008011401140713273343332131253
:1047700011321112933413145352310021030406E1
:10478000080B2D0A090705040241C011C05112533C
:1047900054731211125152731473323100210204F6
:1047A000050607080908060706240302010200019E
:1047B00020012011C001110031321374131433127F
:1047C000F112D31251000102232506074644234269
:1047D000210001E0A0313213B43311121100112075
:1047E00011005233121332112001222485042304B4
:1047F000020342410001E0A05112141315131534B5
:10480000133251400120115213323100012223048E
:104810000504050423010382612001E011801132A7
:1048200013541514333231402102010031723141E9
:104830000223442302012201220102614001A0114E
:104840008051121413341514331231400102010344
:10485000020120521112202122430422410221028E
:10486000A10001E020114051537413321140210284
:10487000030203020100111211320011412223220E
:1048800021004102A18001601160110011323374D6
:10489000131211400162030203213112111211405F
:1048A00001020102030201000100E121E0A0112048
:1048B000121173343331200162036240121112115C
:1048C00000110100010201220001200100E1C001EC
:1048D000001180110012111312141334522001E23E
:1048E00002212031121100110001002102010001FA
:1048F00040210002410001E0601140111211131229
:104900001413141332110021220342010221000169
:104910000011001211001120010041600100C100CE
:10492000014011200160114051121312131433126F
:104930003100014203220102210001401100310037
:1049400011000100010001A0E10001A0018011207F
:1049500031529312110021C2210021403100112057
:104960001100010001E0E16001E011001172731219
:1049700031002142030102010220214011001120D7
:1049800011600140116001000102210200012001BB
:104990004001A05132131253321120010201822131
:1049A0000021000100110031E00011001160210020
:1049B000010201020101002120010001601100112A
:1049C00052131214135211004182010200010021FE
:1049D000401100110011A0110031001120812201AD
:1049E0000100020100210001601100521312131492
:1049F00013323101000201220142010021000100B5
:104A000001112011001120114071001140010221FB
:104A10000201020100210221000100010011001227
:104A2000111233123413321120010201420122010A
:104A300000410001601120110011001100511231DC
:104A400020610201220200020102812011001211E4
:104A500073341332110041020182010061000180B0
:104A600011001100913231402142010202006261C5
:104A700040115214135433310041820122000102CB
:104A800000410001609112115251200122010301E5
:104A900002020082610051335415143331002102A7
:104AA000012203424102A18031921332310041229E
:104AB0000302010300220322010201401112339577
:104AC000333101002201034203222122010261004D
:104AD000011100115213125312310041220322031B
:104AE00000230203020102212032131416151716A7
:104AF00015331120016203020302032201A2414087
:104B00001112531413141332110100020102030293
:104B10000302020002230203222120321416371856
:104B2000171513121100212203024302430103024D
:104B300003822120111213141534151432110001AF
:104B400062230203004302034201201213151819C5
:104B50003A1715131100210203026304E302030252
:104B600003020102401213141517151634122021E6
:104B70002243020300A3220100111215181C1E1D5E
:104B80001916131100020103020304230403240372
:104B900004430423040302034220111214151718BE
:104BA00036151331210203022302030100454E4151
:104BB000424C450000000000000000000000020020
:104BC00000000000010154595045000000000000A1
:104BD000000000000000000300000040400102410E
:104BE0004354494F4E000000000000000000000048
:104BF00004000000803F0403414C545F4D415800C5
:104C000000000000000000000005000000C8420491
:104C100004524144495553000000000000000000C8
:104C2000000009000000164304054D415247494E5B
:104C300000000000000000000000000D0000000067
:104C40004000FF0000000000000000000000000025
:104C50000000000000000000000001004445425533
:104C600047000000000000000000000000000000FD
:104C700000000000FF000000000000000000000035
:104C800000000000000000000000000053636865A1
:104C900064756C657220736C6970207461736B5BF2
:104CA00025755D202825752F25752F2575290A0066
:104CB0005363686564756C6572206F766572727592
:104CC0006E207461736B5B25755D202825752F251B
:104CD00075290A000100524F4C4C000000000000F2
:104CE0000000000000000000000000803F010150B3
:104CF000495443480000000000000000000000008C
:104D000001000000004001025448524F54544C45E9
:104D1000000000000000000000030000004040010F
:104D2000035941570000000000000000000000008F
:104D3000000002000000804000FF000000000000B2
:104D40000000000000000000000000000000000063
:104D50000001004D4F4E49544F520000000000002A
:104D6000000000000000000000000101564F4C54FC
:104D70005F50494E000000000000000000010000EC
:104D80000050410102435552525F50494E0000000D
:104D90000000000000000200000040410403564FE4
:104DA0004C545F4D554C54000000000000000003BF
:104DB000009A9921410404414D505F504552564F8D
:104DC0004C5400000000000007000000884104056A
:104DD000414D505F4F4646534554000000000000CF
:104DE000000B0000000000030643415041434954BA
:104DF000590000000000000000000F0000404E4578
:104E000000FF0000000000000000000000000000A3
:104E1000000000000000000000494E46494E495481
:104E2000594E414E000020410000C84200401C463F
:104E300020BCBE4CCA1B0E5AAEC59D74CDCCCC3D19
:104E40000AD7233C17B7D13877CC2B329595E62477
:104E50001FB14F0A0D9486930D94A1670D948C3B5E
:104E60000D9475380D94A4150D946C1E0D944C275B
:104E70000D9411130D9438380D9480850D949B0575
:104E80000D946D220D9404680D94F6190D94144D33
:104E90000D9446460D9495480D940F1E0D940F0FDA
:104EA0000D943B270D942D060D945B170D94AA5F6E
:104EB0000D9471500D947D7D0D947E4A0D946B5030
:104EC0000D94C3690D94705F0D943A1D0D94480CB8
:104ED0000D948E0A0D94E0440D9443AE0D94D523A9
:104EE0000D94CD080D940F5D0D942F470D94E53C66
:104EF0000D9424680D949F650D9480270D9486274A
:104F00000D94F44D0D94E30E0D94AF120D94F64DE7
:104F10000D9422460D9423BE0D94F0860D94668464
:104F20000D9451650D94F9890D9407440D94232730
:104F30000D942F3B0D94A5890D949B4C0D94381620
:104F40000D943C090D94F7920D943FA70D94A63350
:104F50000D94E9470D9442180D94CD470D94FD1E14
:104F60000D94E75E0D94788F0D947BBE0D946E8446
:104F70000D940B480D94D0020D9469B60D945B1EF0
:104F80000D943B510D94CD8D0D947C9A0D947F869C
:104F90000D94ED7D0D94DF470D94F30E0D9489650E
:104FA0000D94900F0D94A6270D9493460D94748440
:104FB0000D94FF460D941FBE0D94024B0D94268D4B
:104FC0000D94A0450D9401310D9490210D94D2645F
:104FD0000D94F45C0D94637E0D9423480D94274644
:104FE0000D94B5340D9453670D94617F0D94AB7A95
:104FF0000D94D60A0D94D3460D94A13C0D942A1F0E
:105000000D949ABE0D94431E0D94515F0D94C333BD
:105010000D94117D0D94E2200D94371F0D94824C58
:105020000D947A870D9405280D94E84E0D94FD8714
:105030000D948B1F0D9410230D94DC200D948A96F3
:105040000D94AA1F0D94B4100D94BB350D9400411E
:105050000D94904D0D94D19E0D945B9F0D9403A9DA
:105060000D94741A0D94900E0D940CB20D948F291A
:105070000D94B55A0D9407310D94D8290D943865C7
:105080000D9499650D948B620D94C0100D94BB5ACC
:105090000D948A210D94850A0D94797C0D94A12D8F
:1050A0000D946B470D94C9450D94DC870D94361E05
:1050B0000D9468010D945B7F0D943C1C0D94FF8949
:1050C0000D94A75A0D9413100D947D1E0D94118EFE
:1050D0000D9411BA0D946E030D94FB4D0D94801038
:1050E0000D94A21E0D9449100D946C840D947E476E
:1050F0000D9480870D943F0A0D94B15E0D94BA47CC
:105100000D94661B0D946A960D94A17E0D94222E2B
:105110000D94789B0D94AA0B0D94D6220D94819436
:105120000D944C660D946B240D9453460D949A5D2A
:105130000D946C1B0D94134F0D944C8A0D94521FBB
:105140000D944D340D94DAA30D94CD8A0D94FB2665
:105150000D9402BF0D94F6450D9468200D945F10D8
:105160000D9473C00D94C6540D94B0100D94C80BDB
:105170000D945D670D943E730D94EC2E0D94357E69
:105180000D946E100D94216C0D94826B0D94F52688
:105190000D94FC870D94A00A0D9460680D949714EB
:1051A0000D946E200D947C450D9422290D941E655E
:1051B0000D94035D0D94AE830D94387A0D94256F94
:1051C0000D944D4B0D94648A0D94E95C0D94301C44
:1051D0000D942D110D9474030D94FF870D941D2BC8
:1051E0000D94CC170D9427150D9452660D94D01C78
:1051F0000D94680F0D9428570D94DE930D94596407
:105200000D943D480D948A0E0D94D7270D945F643C
:105210000D94B3090D9485620D94FF450D944C29AE
:105220000D9474420D949E150D94F46C0D94A14C44
:105230000D94995A0D9459270D9425220D94E36FDE
:105240000D94450A0D9410470D946D840D94D25918
:105250000D94251B0D9406880D943D470D94AC27A5
:105260000D9424650D9476120D94B05F0D940B2C63
:105270000D940D4F0D94EA0E0D94210F0D94EC1426
:105280000D9480790D94276C0D94FC140D94210BD2
:105290000D948A4D0D9454480D9433210D94E01DC6
:1052A0000D94A7260D94E0460D94BB390D940D0B7B
:1052B0000D94E41E0D946E010D94DC720D94CC5986
:1052C0000D941A050D949B2D0D945CBE0D944823EE
:1052D0000D94D9660D94C47D0D9493100D94AF7EFA
:1052E0000D94F7870D94DD270D94348B0D94A8BF92
:1052F0000D94B43D0D941EAC0D94F8470D94B20A74
:105300000D94A97E0D94F54D0D94A6460D944DAFC8
:105310000D940D920D94F1780D9488450D945A6872
:105320000D94EA870D944E670D94178E0D94E567E2
:105330000D9482410D94B6180D94A5630D948E2D95
:105340000D941D270D94C8850D94FE0E0D947B4879
:105350000D94AC820D94083A0D94833E0D94F57D26
:105360000D9441690D9400880D94F4270D94B18437
:105370000D9470460D94970A0D94BF1B0D94928264
:105380000D9429B00D94E62E0D94D7450D94A416D6
:105390000D94BA100D9418420D942D150D94F968C2
:1053A0000D944A850D9456100D9435510D948B1C17
:1053B0000D942E570D9451AC0D94F94D0D94440F4E
:1053C0000D942C8D0D941ABE0D94D2480D94BC18DA
:1053D0000D944D100D9464490D943E160D94CC54CB
:1053E0000D94B8B00D94AB890D9431190D946248A9
:1053F0000D942C830D945F780D9465170D941C2EDD
:105400000D94710F0D941DB60D94D3B90D941C29F4
:105410000D94098C0D9437190D94014E0D94B047DD
:105420000D94F0190D94F7A20D941B1E0D94129B70
:105430000D946D1F0D9424B70D94C29B0D94BF1E47
:105440000D94401D0D9466460D942B9D0D94496757
:105450000D94DF660D9467B10D9494BE0D94D0A1A8
:105460000D9410290D9444260D94BF4A0D94F0A775
:105470000D943AC60D9404290D949B450D94095D35
:105480000D94E35C0D9412280D94FCBE0D947B6585
:105490000D94B5470D94EB670D94697E0D943E24F1
:1054A0000D941A4DBBC94CEAF8F20CF70FF7E4F76C
:1054B0009E29CCCB11241FBECFEFD1E2DEBFCDBFE2
:1054C00000E00CBF16E0A0E0B2E0E2E7F7E903E09D
:1054D0000BBF02C007900D92AC37B107D9F717E1A7
:1054E000ACE7B6E001C01D92A23CB107E1F714E5BC
:1054F000C2EBD4E500E006C022970109FE010BBF14
:105500000F94ACC7C43AD10780E00807A9F70E94FE
:10551000F4B60D94A8CB0C94000008950895609102
:10552000CF117091D0118091D1119091D2116093CF
:10553000FD087093FE088093FF08909300092DECFE
:105540003CEC4CEC5DE30F94AEC4609301097093A6
:10555000020980930309909304098091D7119091D7
:10556000D811A091D911B091DA11809305099093C7
:105570000609A0930709B09308098091DB11909167
:10558000DC11A091DD11B091DE118093030A90939C
:10559000040AA093050AB093060A6091DF11709186
:1055A000E0118091E1119091E211609317097093DD
:1055B00018098093190990931A092DEC3CEC4CECD6
:1055C0005DE30F94AEC460931B0970931C09809334
:1055D0001D0990931E098091E7119091E811A09107
:1055E000E911B091EA1180931F0990932009A093CB
:1055F0002109B09322098091EB119091EC11A091B7
:10560000ED11B091EE118093110A9093120AA093BC
:10561000130AB093140AE4EBFEE080818D7F80834F
:1056200008958091CF119091D011A091D111B09196
:10563000D2118093FD089093FE08A093FF08B093C9
:1056400000098091D3119091D411A091D511B091FE
:10565000D6118093010990930209A0930309B09396
:1056600004098091D7119091D811A091D911B091CE
:10567000DA118093050990930609A0930709B09366
:1056800008098091DB119091DC11A091DD11B0919E
:10569000DE118093030A9093040AA093050AB09345
:1056A000060A8091DF119091E011A091E111B09173
:1056B000E2118093170990931809A0931909B093E8
:1056C0001A098091E3119091E411A091E511B09134
:1056D000E61180931B0990931C09A0931D09B093B8
:1056E0001E098091E7119091E811A091E911B09104
:1056F000EA1180931F0990932009A0932109B09388
:1057000022098091EB119091EC11A091ED11B091D3
:10571000EE118093110A9093120AA093130AB0938A
:10572000140AE4EBFEE080818D7F808308958F92E0
:105730009F92AF92BF92CF92DF92EF92FF928090B2
:10574000EF119090F011A090F111B090F21120E0C3
:1057500030E0A901C501B4010F94E1C1882309F427
:1057600077C0C090F311D090F411E090F511F09053
:10577000F61120E030E0A901C701B6010F94E1C1A4
:10578000882309F465C08092FD089092FE08A092DB
:10579000FF08B09200098092010990920209A0923C
:1057A0000309B09204098091F7119091F811A0912A
:1057B000F911B091FA118093050990930609A0930D
:1057C0000709B09308098091FB119091FC11A091F9
:1057D000FD11B091FE118093030A9093040AA093E7
:1057E000050AB093060AC0921709D0921809E092F0
:1057F0001909F0921A09C0921B09D0921C09E09273
:105800001D09F0921E098091FF1190910012A09144
:105810000112B091021280931F0990932009A09366
:105820002109B09322098091031290910412A09152
:105830000512B09106128093110A9093120AA09358
:10584000130AB093140A8091B40E8D7F8093B40E26
:10585000FF90EF90DF90CF90BF90AF909F908F9090
:10586000089510929507109214121092131210922C
:1058700015121092161210921712109226120895F5
:105880000F931F9300917107109172078091391245
:1058900090913A12A0913B12B0913C121016110651
:1058A0000CF009C0222717FD2095322F0817190781
:1058B0002A073B0764F48C019D0101348FE118072E
:1058C0002105310524F000E41FE120E030E0B801BB
:1058D000C9011F910F910895A0910B15B0910C155E
:1058E000ED91FC9111970280F381E02DCD01199586
:1058F000089580910B1590910C15DC01ED91FC91B0
:105900000480F581E02D1995089580910B159091F3
:105910000C15DC01ED91FC910680F781E02D1995C5
:105920000895462FA0910515B0910615ED91FC91B3
:1059300011970680F781E02D682FCD011995089504
:1059400080913608909137088F3C24E092078CF0C4
:10595000813525E092077CF0833D25E092076CF0CD
:10596000853526E092075CF0863D964054F484E04D
:10597000089580E0089581E0089582E0089583E02D
:10598000089585E0089580918B0782FD03C061E052
:105990008AE3C7DF80918B0783FD03C061E08BE35F
:1059A000C0DF80918B0781FD03C061E08CE3B9DF2C
:1059B00061E08DE3B6DF61E08EE3B3DF61E08FE3AA
:1059C000B0DF61E080E4ADDF61E081E4AACF8091E7
:1059D0008B0782FD03C060E08AE3A3DF80918B0721
:1059E00083FD03C060E08BE39CDF80918B0781FD2A
:1059F00003C060E08CE395DF60E08DE392DF60E060
:105A00008EE38FDF60E08FE38CDF60E080E489DF8E
:105A100060E081E486CF61E08CE383CF1092451291
:105A2000109246121092471210924812109253127E
:105A30001092541210925512109256121092571240
:105A4000109258121092591210925A1210925B1220
:105A500010925C1210925D1210925E1210925F1200
:105A600010926012109261121092621210926312E0
:105A70001092641210926512109266120895CF93DC
:105A8000DF93FC01DB01C0912B07D0912C0728810B
:105A900039811B968C911B978F931A968C911A972C
:105AA0008F9319968C9119978F9318968C911897BC
:105AB0008F9317968C9117978F9316968C911697B4
:105AC0008F9315968C9115978F9314968C911497AC
:105AD0008F9313968C9113978F9312968C911297A4
